:1000000019C020C01FC01EC01DC01CC01BC01AC00C
:1000100019C018C017C016C015C014C013C012C034
:1000200011C010C00FC00EC00DC00CC00BC00AC064
:1000300009C008C011241FBECFEFCDBFDFE3DEBF74
:1000400041D04FC0DDCFE0E2F4E084E085838183DE
:10005000E0E0F8E08CE695E08087918780EC86838D
:100060000895E0E0F8E084818823ECF780910008AF
:100070000895E0E0F8E0948195FFFDCF80930208B9
:100080000895EF92FF920F931F93CF93DF938C010C
:100090007C01C0E0D0E005C0F70181917F01E9DF7C
:1000A0002196F80101900020E9F73197E01BF10B50
:1000B000CE17DF0788F3DF91CF911F910F91FF904B
:1000C000EF900895C0DF86EE90E8DBDFC0E0D8E077
:1000D0008C81882314F4C5DFCCDF86EE90E8D1DF75
:0600E000F7CFF894FFCFFA
:0800E60048656C6C6F0D0A0007
:00000001FF
