:1000000019C028C027C099C0C0C024C023C022C0C6
:1000100021C020C01FC01EC01DC01CC01BC01AC0F4
:1000200019C018C017C016C015C014C013C012C024
:1000300011C010C011241FBECFEFCDBFDFE3DEBF64
:100040002EE3A0E0BEE301C01D92A632B207E1F7A5
:1000500020D12EC5B6C01092053E1092043E0895E0
:10006000E0E0F4E080E88683818380E4818380E1BE
:10007000858381838CE0828382898860828B8389F7
:100080008860838BE0E2F4E083E1818380E2828315
:10009000E0E4F4E08FE08183158208958091080404
:1000A00086958695869591E08927817090E00895E0
:1000B000E0E0F4E082898360828B83898360838BB4
:1000C000089580E180932604089580E180932704B9
:1000D000089581E0809327040895E0E0F4E080E84B
:1000E000858392E49A95F1F700C0868382E48A952D
:1000F000F1F700C00895E0E4F4E09481907F9483E8
:1001000094818F70982B9483089580E480930504E4
:10011000089580E4809306040895E0E2F4E084E02A
:1001200085838183089584E0809326040895E0E226
:10013000F4E085898960858B08951F920F920FB630
:100140000F9211248F93EF93FF938091090482FF04
:1001500008C081E08093053EE9E0F4E0808184708E
:1001600080838091090483FF08C081E08093013E71
:10017000E9E0F4E0808188708083FF91EF918F91B6
:100180000F900FBE0F901F9018951F920F920FB6F1
:100190000F9211248F93EF93FF938091290485FF91
:1001A00008C081E08093043EE9E2F4E0808180723F
:1001B0008083FF91EF918F910F900FBE0F901F9052
:1001C00018951F920F920FB60F9211242F938F93B1
:1001D0009F93AF93BF93EF93FF9384E190E0E0E2AE
:1001E000F4E020E12583AFE4B3EC1197F1F700C010
:1001F00000002683AFE4B3EC1197F1F700C00000D4
:10020000019781F7FF91EF91BF91AF919F918F91EE
:100210002F910F900FBE0F901F90189588DF0895B3
:100220008091043E882319F054DF1092043E089513
:100230008091023E9091033E08958091023E9091FC
:10024000033E8F3F910529F41092023E1092033E27
:1002500005C001968093023E9093033E8091023E3A
:100260009091033E0895E9DF9F938F9384EB9AE882
:100270009F938F9386E09EE39F938F9347D186E071
:100280009EE340D10F900F900F900F900F900F9022
:100290000895E1DEE5DEC2DF0BDF01D13BD07894CB
:1002A00089EB9AE8DDD086EC9AE80BD104EB1AE8EA
:1002B000C6E0DEE3B5DF8091003E811101C033DF8F
:1002C0008091053E882319F0FCDE1092053EE6DEA3
:1002D000019719F480ED9AE8F4D02FEF80E792E0CF
:1002E000215080409040E1F700C00000EEDEBBDF0F
:1002F0009FDF9F938F931F930F93DF93CF9306D12D
:10030000BED0CE01ADD00F900F900F900F900F90F8
:100310000F90D0CF2FE78AE196E0215080409040A7
:10032000E1F700C00000F5DE83E0E5DE81E0D5DE28
:1003300087E893E10197F1F700C0000083E0DBDE7E
:1003400081E0CBDE87E893E10197F1F700C0000080
:1003500083E0D1DE81E0C1DE87E893E10197F1F728
:1003600000C0000082E0C7DE81E0B7DE87E893E1ED
:100370000197F1F700C0000082E0BDDE81E0ADDE54
:1003800087E893E10197F1F700C0000088E0B3DE51
:1003900081E0A3DE87E893E10197F1F700C0000058
:1003A00080E0A9DE81E099DE87E893E10197F1F72B
:1003B00000C000008CE09FDE81E08FDE87E893E1E3
:1003C0000197F1F700C0000080E095DE81E085DE56
:1003D00087E893E10197F1F700C0000086E08BDE2B
:1003E00081E07BDE87E893E10197F1F700C0000030
:1003F00080E081DE81E071DE87E893E10197F1F72B
:1004000000C0000086E077DE81E067DE87E893E1E8
:100410000197F1F700C0000080E06DDE81E05DDE55
:1004200087E893E10197F1F700C0000081E063DE07
:1004300081E053DE87E893E10197F1F700C0000007
:100440000895CF93C82F61DE8C2F82958F7053DE75
:1004500081E043DE8C2F4FDE81E03FDECF910895B7
:10046000CF93DF93EC0151DE8881882329F0219618
:10047000E8DF89918111FCCFDF91CF91089549DEAA
:1004800080E039DE81E029DE81E035DE81E025DEB5
:1004900087EA91E60197F1F700C0000008953DDE7C
:1004A000E0E0F8E08CE695E08087918780EC868339
:1004B0000895E0E0F8E0948195FFFDCF8093020875
:1004C0000895EF92FF920F931F93CF93DF938C01C8
:1004D0007C01C0E0D0E005C0F70181917F01E9DF38
:1004E0002196F80101900020E9F73197E01BF10B0C
:1004F000CE17DF0788F3DF91CF911F910F91FF9007
:10050000EF900895DEDF8AE0D4DF0895AEE0B0E03A
:10051000EBE8F2E0AAC20D891E8986E08C8309838C
:100520001A838FEF9FE78D839E83AE01475E5F4FF7
:100530006F89788DCE01019608D0EF81F885E00FA4
:10054000F11F10822E96E4E0A9C2ABE0B0E0EAEA27
:10055000F2E07DC26C017B018A01FC0116821782E8
:10056000838181FFBFC1CE0101963C01F6019381D9
:10057000F70193FD859193FF81917F01882309F411
:10058000ADC1853239F493FD859193FF81917F014F
:10059000853221F4B60190E0C0D1E8CF912C212C16
:1005A000312CFFE1F315D8F08B3279F038F480323A
:1005B00079F08332A1F4232D20611DC08D3261F0CA
:1005C000803369F4232D216016C0832D8260382E7C
:1005D000E32DE4603E2E2AC0F32DF8601DC037FCE9
:1005E0002DC020ED280F2A3040F08E32B9F436FCB1
:1005F00075C1232D2064322E19C036FE06C08AE054
:10060000989E200D1124922E11C0EAE02E9E200DFE
:100610001124222EF32DF0623F2E08C08C3621F4D7
:10062000832D8068382E02C0883641F4F70193FD8F
:10063000859193FF81917F018111B3CF982F9F7D89
:100640009554933028F40C5F1F4F9FE399830DC09E
:10065000833631F0833771F0833509F055C020C0FF
:10066000F801808189830E5F1F4F88248394912C29
:10067000530112C02801F2E04F0E511CF801A08076
:10068000B18036FE03C0692D70E002C06FEF7FEFCE
:10069000C50138D14C018201F32DFF773F2E15C0E3
:1006A000280122E0420E511CF801A080B18036FEE4
:1006B00003C0692D70E002C06FEF7FEFC50117D155
:1006C0004C01F32DF0683F2E820133FC19C0822DBE
:1006D00090E088169906A0F4B60180E290E01DD162
:1006E0002A94F5CFF50137FC859137FE81915F01A2
:1006F000B60190E012D121102A9421E0821A9108CB
:100700008114910479F7E1C0843611F0893639F506
:10071000F80137FE07C060817181828193810C5F8F
:100720001F4F08C060817181072E000C880B990B48
:100730000E5F1F4FF32DFF763F2E97FF09C0909558
:100740008095709561957F4F8F4F9F4FF0683F2E3A
:100750002AE030E0A3011DD1882E861844C08537D9
:1007600031F4232D2F7EB22E2AE030E025C0932DC8
:10077000997FB92E8F36C1F018F4883579F0AEC064
:10078000803719F0883721F0A9C0E92FE061BE2E2B
:10079000B4FE0DC0FB2DF460BF2E09C034FE0AC0AC
:1007A000292F2660B22E06C028E030E005C020E1E7
:1007B00030E002C020E132E0F801B7FE07C06081FE
:1007C0007181828193810C5F1F4F06C060817181AE
:1007D00080E090E00E5F1F4FA301DBD0882E8618CB
:1007E000FB2DFF773F2E36FE0DC0232D2E7FA22E30
:1007F000891458F434FE0BC032FC09C0832D8E7E60
:10080000A82E05C0B82CA32C03C0B82C01C0B92C4D
:10081000A4FE0FC0FE01E80DF11D8081803321F49C
:100820009A2D997EA92E09C0A2FE06C0B394B39456
:1008300004C08A2D867809F0B394A3FC10C0A0FEF2
:1008400006C0B21480F4280C922C9B180DC0B21470
:1008500058F4B60180E290E060D0B394F8CFB214BF
:1008600018F42B1802C0982C212CA4FE0FC0B6013E
:1008700080E390E052D0A2FE16C0A1FC03C088E73E
:1008800090E002C088E590E0B6010CC08A2D867821
:1008900051F0A1FE02C08BE201C080E2A7FC8DE214
:1008A000B60190E03AD0891430F4B60180E390E0CC
:1008B00034D09A94F8CF8A94F301E80DF11D808129
:1008C000B60190E02AD08110F6CF222009F44ECE56
:1008D000B60180E290E021D02A94F7CFF60186811C
:1008E000978102C08FEF9FEF2B96E2E1C9C0FC0118
:1008F0000590615070400110D8F7809590958E0F4B
:100900009F1F0895FC016150704001900110D8F7BD
:10091000809590958E0F9F1F08950F931F93CF93EF
:10092000DF93FB01238121FD03C08FEF9FEF2CC0DC
:1009300022FF16C046815781248135814217530713
:1009400044F4A081B1819D012F5F3F4F208331830B
:100950008C93268137812F5F3F4F2683378314C0C6
:100960008B01EC01FB010084F185E02D0995892BB9
:10097000E1F6D80116968D919C91179701961696DF
:100980008D939C931797CE01DF91CF911F910F917B
:100990000895FA01AA27283051F1203181F1E89415
:1009A0006F936E7F6E5F7F4F8F4F9F4FAF4FB1E062
:1009B0003ED0B4E03CD0670F781F891F9A1FA11D5D
:1009C000680F791F8A1F911DA11D6A0F711D811D5E
:1009D000911DA11D20D009F468943F912AE0269F23
:1009E00011243019305D3193DEF6CF010895462F82
:1009F0004770405D4193B3E00FD0C9F7F6CF462F63
:100A00004F70405D4A3318F0495D31FD40524193CB
:100A100002D0A9F7EACFB4E0A69597958795779588
:100A20006795BA95C9F700976105710508959B010F
:100A3000AC010A2E06945795479537952795BA9598
:100A4000C9F7620F731F841F951FA01D08952F9271
:100A50003F924F925F926F927F928F929F92AF924E
:100A6000BF92CF92DF92EF92FF920F931F93CF939B
:100A7000DF93CDB7DEB7CA1BDB0BCDBFDEBF09945A
:100A80002A88398848885F846E847D848C849B841E
:100A9000AA84B984C884DF80EE80FD800C811B812C
:100AA000AA81B981CE0FD11DCDBFDEBFED01089562
:040AB000F894FFCFE8
:100AB400483A25690048616C6C6F2057656C742155
:100AC4000A00493A5354415254454400433A486554
:060AD4006C6C6F0D0A00BE
:00000001FF
