:1000000019C028C027C0A0C0C7C024C023C022C0B8
:1000100021C020C04CC11EC01DC01CC01BC01AC0C6
:1000200019C018C017C016C015C014C004C312C030
:1000300011C010C011241FBECFEFCDBFDFE3DEBF64
:100040002EE3A0E0BEE301C01D92AB36B207E1F79C
:100050003AD128C6BDC01092083E1092073E0895BE
:10006000E0E0F4E080E88683818380E4818380E1BE
:10007000858381838CE0828382898860828B8389F7
:100080008860838BE0E2F4E083E1818380E2828315
:10009000E0E4F4E08FE08183158208958091080404
:1000A00086958695869591E08927817090E00895E0
:1000B000E0E0F4E082898360828B83898360838BB4
:1000C000089580E180932604089580E180932704B9
:1000D00008951816190624F481E0809325040895E4
:1000E00081E0809326040895E0E0F4E080E88583D1
:1000F00092E49A95F1F700C0868382E48A95F1F73D
:1001000000C00895E0E4F4E09481907F94839481AA
:100110008F70982B9483089580E48093050408954C
:1001200080E4809306040895E0E2F4E084E08583AF
:100130008183089584E0809326040895E0E2F4E04A
:1001400085898960858B08951F920F920FB60F9253
:1001500011248F93EF93FF938091090482FF08C0CD
:1001600081E08093083EE9E0F4E080818470808340
:100170008091090483FF08C081E08093043EE9E098
:10018000F4E0808188708083FF91EF918F910F90D0
:100190000FBE0F901F9018951F920F920FB60F92DF
:1001A00011248F93EF93FF938091290485FF08C05A
:1001B00081E08093073EE9E2F4E0808180728083F1
:1001C000FF91EF918F910F900FBE0F901F90189598
:1001D0001F920F920FB60F9211242F938F939F931C
:1001E000AF93BF93EF93FF9384E190E0E0E2F4E0FC
:1001F00020E12583AFE4B3EC1197F1F700C00000D4
:100200002683AFE4B3EC1197F1F700C0000001972B
:1002100081F7FF91EF91BF91AF919F918F912F91B6
:100220000F900FBE0F901F901895E0E0FAE08BE260
:100230009AE086A397A381E0828708957FDFF5DFA8
:1002400008958091073E882329F081E090E041DF06
:100250001092073E08958091053E9091063E8F3F93
:10026000910529F41092053E1092063E05C00196B4
:100270008093053E9093063E8091053E9091063E08
:100280000895E9DF9F938F938AEA9CE89F938F9369
:100290008AE29EE39F938F9333D28AE29EE35DD1FD
:1002A0000F900F900F900F900F900F9008951F9246
:1002B0000F920FB60F9211241092033E0F900FBEB3
:1002C0000F901F901895C7DECBDEB8DFF1DE11D19D
:1002D00037D078948FEA9CE8E3D083EC9CE81CD17B
:1002E000B0DF8091033E811101C024DF8091083E80
:1002F000882319F0E6DE1092083ED0DE019719F44B
:100300008DEC9CE809D18091093E882321F067D1CA
:10031000DAD01092093E8091023E882329F0109293
:10032000023E8AE49EE3BCD02FEF80E792E02150AA
:1003300080409040E1F700C00000C7DEA2DFD0CFD0
:100340002FE78AE196E0215080409040E1F700C01D
:100350000000E6DE83E0D6DE81E0C6DE87E893E1DA
:100360000197F1F700C0000083E0CCDE81E0BCDE45
:1003700087E893E10197F1F700C0000083E0C2DE57
:1003800081E0B2DE87E893E10197F1F700C0000059
:1003900082E0B8DE81E0A8DE87E893E10197F1F71B
:1003A00000C0000082E0AEDE81E09EDE87E893E1DF
:1003B0000197F1F700C0000088E0A4DE81E094DE40
:1003C00087E893E10197F1F700C0000080E09ADE32
:1003D00081E08ADE87E893E10197F1F700C0000031
:1003E0008CE090DE81E080DE87E893E10197F1F711
:1003F00000C0000080E086DE81E076DE87E893E1E1
:100400000197F1F700C0000086E07CDE81E06CDE41
:1004100087E893E10197F1F700C0000080E072DE09
:1004200081E062DE87E893E10197F1F700C0000008
:1004300086E068DE81E058DE87E893E10197F1F716
:1004400000C0000080E05EDE81E04EDE87E893E1E0
:100450000197F1F700C0000081E054DE81E044DE46
:1004600087E893E10197F1F700C000000895CF936A
:10047000C82F52DE8C2F82958F7044DE81E034DEEF
:100480008C2F40DE81E030DECF91089549DE8CE094
:1004900039DE81E029DE80E035DE81E025DE089569
:1004A000CF93DF93EC0138DE8881882349F02196D1
:1004B0008A3011F4EBDF01C0DADF89918111F8CFC6
:1004C000DF91CF9108952CDE80E01CDE81E00CDE10
:1004D00081E018DE81E008DE87EA91E60197F1F716
:1004E00000C000000895E0E0F8E085818068858321
:1004F00008951ADEE0E0F8E08CE695E080879187C9
:1005000080EC8683F0DF0895E0E0F8E0948195FFC9
:10051000FDCF809302080895EF92FF920F931F93EF
:10052000CF93DF938C017C01C0E0D0E005C0F701E0
:1005300081917F01E9DF2196F80101900020E9F720
:100540003197E01BF10BCE17DF0788F3DF91CF91D6
:100550001F910F91FF90EF900895DEDF80E0D4DFD0
:100560000895E0E0F8E084818823ECF780910008AA
:100570000895CF92DF92EF92FF920F931F93CF9344
:10058000DF937C016B016132710524F06894CC2407
:10059000C5F8D12CDD20C4F0E70100E010E07E01B9
:1005A0000F5F1F4FDEDF89938A3021F0882311F01F
:1005B0008D3031F4F7011082C016D1063CF404C02E
:1005C0007E01C016D1065CF7F7011082DF91CF9152
:1005D0001F910F91FF90EF90DF90CF9008950F93B0
:1005E0001F93CF93DF9367ED7CE88AE09EE351D0C1
:1005F000892B19F48CED9CE8B0DF61EE7CE88AE091
:100600009EE343D0EC0168EA7CE880E090E03DD0D6
:100610008C0163EE7CE8CE013CD0892B39F481E07B
:100620008093023EB8018AE49EE33CD0DF91CF91F3
:100630001F910F9108951F920F920FB60F921124E0
:100640002F933F934F935F936F937F938F939F93DA
:10065000AF93BF93EF93FF9360E270E08AE09EE375
:1006600088DF81E08093093EFF91EF91BF91AF91C8
:100670009F918F917F916F915F914F913F912F91BA
:100680000F900FBE0F901F90189540E05EE311D0C1
:100690000895FB01DC018D91019080190110D9F3BF
:1006A000990B0895FB01DC0101900D920020E1F708
:1006B0000895FA01A191B081009719F41097E1F023
:1006C000CD01DC01CD010D90002011F4C00113C05B
:1006D000FB012191222319F02015D9F7F3CFFB015B
:1006E0002191201519F41E92119606C02223C1F7FC
:1006F0000D900020A1F7D001FA01A193B0830895D5
:10070000AEE0B0E0E5E8F3E0AAC20D891E8986E01C
:100710008C8309831A838FEF9FE78D839E83AE01BD
:10072000475E5F4F6F89788DCE01019608D0EF81CB
:10073000F885E00FF11F10822E96E4E0A9C2ABE02D
:10074000B0E0E4EAF3E07DC26C017B018A01FC01C8
:1007500016821782838181FFBFC1CE0101963C01C1
:10076000F6019381F70193FD859193FF81917F01BC
:10077000882309F4ADC1853239F493FD859193FF47
:1007800081917F01853221F4B60190E0C0D1E8CF9C
:10079000912C212C312CFFE1F315D8F08B3279F01C
:1007A00038F4803279F08332A1F4232D20611DC00A
:1007B0008D3261F0803369F4232D216016C0832DC2
:1007C0008260382EE32DE4603E2E2AC0F32DF860BF
:1007D0001DC037FC2DC020ED280F2A3040F08E328E
:1007E000B9F436FC75C1232D2064322E19C036FEB3
:1007F00006C08AE0989E200D1124922E11C0EAE0D6
:100800002E9E200D1124222EF32DF0623F2E08C0C3
:100810008C3621F4832D8068382E02C0883641F44E
:10082000F70193FD859193FF81917F018111B3CFF2
:10083000982F9F7D9554933028F40C5F1F4F9FE3B2
:1008400099830DC0833631F0833771F0833509F019
:1008500055C020C0F801808189830E5F1F4F882416
:100860008394912C530112C02801F2E04F0E511CC9
:10087000F801A080B18036FE03C0692D70E002C08F
:100880006FEF7FEFC50138D14C018201F32DFF7767
:100890003F2E15C0280122E0420E511CF801A08015
:1008A000B18036FE03C0692D70E002C06FEF7FEFAC
:1008B000C50117D14C01F32DF0683F2E820133FCA6
:1008C00019C0822D90E088169906A0F4B60180E246
:1008D00090E01DD12A94F5CFF50137FC859137FEC4
:1008E00081915F01B60190E012D121102A9421E09C
:1008F000821A91088114910479F7E1C0843611F0CD
:10090000893639F5F80137FE07C06081718182812F
:1009100093810C5F1F4F08C060817181072E000C0E
:10092000880B990B0E5F1F4FF32DFF763F2E97FF1D
:1009300009C090958095709561957F4F8F4F9F4F1F
:10094000F0683F2E2AE030E0A3011DD1882E8618E2
:1009500044C0853731F4232D2F7EB22E2AE030E0BB
:1009600025C0932D997FB92E8F36C1F018F48835A4
:1009700079F0AEC0803719F0883721F0A9C0E92F8F
:10098000E061BE2EB4FE0DC0FB2DF460BF2E09C089
:1009900034FE0AC0292F2660B22E06C028E030E0BF
:1009A00005C020E130E002C020E132E0F801B7FEEE
:1009B00007C060817181828193810C5F1F4F06C0E7
:1009C0006081718180E090E00E5F1F4FA301DBD05A
:1009D000882E8618FB2DFF773F2E36FE0DC0232D67
:1009E0002E7FA22E891458F434FE0BC032FC09C0AD
:1009F000832D8E7EA82E05C0B82CA32C03C0B82C46
:100A000001C0B92CA4FE0FC0FE01E80DF11D8081CC
:100A1000803321F49A2D997EA92E09C0A2FE06C02A
:100A2000B394B39404C08A2D867809F0B394A3FCE0
:100A300010C0A0FE06C0B21480F4280C922C9B18A3
:100A40000DC0B21458F4B60180E290E060D0B394C7
:100A5000F8CFB21418F42B1802C0982C212CA4FE45
:100A60000FC0B60180E390E052D0A2FE16C0A1FCF8
:100A700003C088E790E002C088E590E0B6010CC0B2
:100A80008A2D867851F0A1FE02C08BE201C080E27F
:100A9000A7FC8DE2B60190E03AD0891430F4B6019B
:100AA00080E390E034D09A94F8CF8A94F301E80D73
:100AB000F11D8081B60190E02AD08110F6CF22206E
:100AC00009F44ECEB60180E290E021D02A94F7CF0F
:100AD000F6018681978102C08FEF9FEF2B96E2E1AE
:100AE000C9C0FC010590615070400110D8F7809595
:100AF00090958E0F9F1F0895FC01615070400190EA
:100B00000110D8F7809590958E0F9F1F08950F9331
:100B10001F93CF93DF93FB01238121FD03C08FEF50
:100B20009FEF2CC022FF16C046815781248135815A
:100B30004217530744F4A081B1819D012F5F3F4FBD
:100B4000208331838C93268137812F5F3F4F26830B
:100B5000378314C08B01EC01FB010084F185E02D8B
:100B60000995892BE1F6D80116968D919C911797DE
:100B7000019616968D939C931797CE01DF91CF9196
:100B80001F910F910895FA01AA27283051F12031C1
:100B900081F1E8946F936E7F6E5F7F4F8F4F9F4F11
:100BA000AF4FB1E03ED0B4E03CD0670F781F891F53
:100BB0009A1FA11D680F791F8A1F911DA11D6A0F21
:100BC000711D811D911DA11D20D009F468943F91D4
:100BD0002AE0269F11243019305D3193DEF6CF01D3
:100BE0000895462F4770405D4193B3E00FD0C9F799
:100BF000F6CF462F4F70405D4A3318F0495D31FD06
:100C00004052419302D0A9F7EACFB4E0A695979558
:100C1000879577956795BA95C9F70097610571052E
:100C200008959B01AC010A2E069457954795379578
:100C30002795BA95C9F7620F731F841F951FA01DD2
:100C400008952F923F924F925F926F927F928F9270
:100C50009F92AF92BF92CF92DF92EF92FF920F934B
:100C60001F93CF93DF93CDB7DEB7CA1BDB0BCDBF8E
:100C7000DEBF09942A88398848885F846E847D8421
:100C80008C849B84AA84B984C884DF80EE80FD8034
:100C90000C811B81AA81B981CE0FD11DCDBFDEBFD2
:080CA000ED010895F894FFCF67
:100CA8000000483A2569005374616E6462792055E2
:100CB8006E69740A72656164792100493A53544136
:100CC8005254454400433A48656C6C6F0D0A005411
:0E0CD800657374004563686F003A0044530072
:00000001FF
