:1000000019C028C027C0A0C0C7C024C0E5C222C0F4
:1000100021C020C020C11EC01DC01CC01BC01AC0F2
:1000200019C018C017C016C015C014C03AC412C0F9
:1000300011C010C011241FBECFEFCDBFDFE3DEBF64
:100040002EE3A0E0BEE301C01D92AF3AB207E1F794
:100050000ED1D5C8BDC010920D3E10920C3E089531
:10006000E0E0F4E080E88683818380E4818380E1BE
:10007000858381838CE0828382898860828B8389F7
:100080008860838BE0E2F4E083E1818380E2828315
:10009000E0E4F4E08FE08183158208958091080404
:1000A00086958695869591E08927817090E00895E0
:1000B000E0E0F4E082898360828B83898360838BB4
:1000C000089580E180932604089580E180932704B9
:1000D00008951816190624F481E0809325040895E4
:1000E00081E0809326040895E0E0F4E080E88583D1
:1000F00092E49A95F1F700C0868382E48A95F1F73D
:1001000000C00895E0E4F4E09481907F94839481AA
:100110008F70982B9483089580E48093050408954C
:1001200080E4809306040895E0E2F4E084E08583AF
:100130008183089584E0809326040895E0E2F4E04A
:1001400085898960858B08951F920F920FB60F9253
:1001500011248F93EF93FF938091090482FF08C0CD
:1001600081E080930D3EE9E0F4E08081847080833B
:100170008091090483FF08C081E08093093EE9E093
:10018000F4E0808188708083FF91EF918F910F90D0
:100190000FBE0F901F9018951F920F920FB60F92DF
:1001A00011248F93EF93FF938091290485FF08C05A
:1001B00081E080930C3EE9E2F4E0808180728083EC
:1001C000FF91EF918F910F900FBE0F901F90189598
:1001D0001F920F920FB60F9211242F938F939F931C
:1001E000AF93BF93EF93FF9384E190E0E0E2F4E0FC
:1001F00020E12583AFE4B3EC1197F1F700C00000D4
:100200002683AFE4B3EC1197F1F700C0000001972B
:1002100081F7FF91EF91BF91AF919F918F912F91B6
:100220000F900FBE0F901F901895E0E0FAE08BE260
:100230009AE086A397A381E0828708957FDFF5DFA8
:10024000089580910C3E882329F081E090E041DF01
:1002500010920C3E08951F920F920FB60F92112428
:100260001092083E0F900FBE0F901F901895F3DE6E
:10027000F7DEE4DF1DDFE0D177D0789484E092E907
:1002800023D188E192E9EBD1C0E5D0E0DADF8091BB
:10029000083E811101C04EDF80910D3E882319F088
:1002A00010DF10920D3EFADE019719F482E292E916
:1002B000D6D18091073E882319F057D21092073E7D
:1002C0008091063E882369F01092063E10D184E9A1
:1002D0009EE3FAD0EFD082E19EE3F6D08CE292E981
:1002E000DFD18091053E882349F001D189E392E96D
:1002F000EBD01092053E8091A63E21D18091043E24
:10030000882331F0F4D083E79EE3DED01092043EE0
:100310008091033E882321F01092033E38D12DD1E5
:100320008091023E8823A9F01092023E86E592E970
:10033000B7D12FEF80E792E0215080409040E1F765
:1003400000C0000088818260888388818160888302
:1003500088952FEF80E792E0215080409040E1F7B0
:1003600000C00000B2DE92CF2FE78AE196E0215074
:1003700080409040E1F700C00000D2DE83E0C2DEA2
:1003800081E0B2DE87E893E10197F1F700C0000059
:1003900083E0B8DE81E0A8DE87E893E10197F1F71A
:1003A00000C0000083E0AEDE81E09EDE87E893E1DE
:1003B0000197F1F700C0000082E0A4DE81E094DE46
:1003C00087E893E10197F1F700C0000082E09ADE30
:1003D00081E08ADE87E893E10197F1F700C0000031
:1003E00088E090DE81E080DE87E893E10197F1F715
:1003F00000C0000080E086DE81E076DE87E893E1E1
:100400000197F1F700C000008CE07CDE81E06CDE3B
:1004100087E893E10197F1F700C0000080E072DE09
:1004200081E062DE87E893E10197F1F700C0000008
:1004300086E068DE81E058DE87E893E10197F1F716
:1004400000C0000080E05EDE81E04EDE87E893E1E0
:100450000197F1F700C0000086E054DE81E044DE41
:1004600087E893E10197F1F700C0000080E04ADEE1
:1004700081E03ADE87E893E10197F1F700C00000E0
:1004800081E040DE81E030DE87E893E10197F1F71B
:1004900000C000000895CF93C82F3EDE8C2F8295B8
:1004A0008F7030DE81E020DE8C2F2CDE81E01CDEC0
:1004B000CF91089535DE8CE025DE81E015DE80E009
:1004C00021DE81E011DE0895CF93DF93EC0124DE7D
:1004D0008881882349F021968A3011F4EBDF01C02E
:1004E000DADF89918111F8CFDF91CF91089518DE7D
:1004F00080E008DE81E0F8DD81E004DE81E0F4DD0B
:1005000087EA91E60197F1F700C000000895E0E066
:10051000F4E08481806184830895E0E0F4E08481E4
:100520008F7E84830895E0E2F4E084818D7F84836C
:100530000895E0E2F4E08481826084830895882352
:1005400019F0823061F0089580910B3E882349F0C4
:1005500080910A3E882329F0ECDFDFDF0895D7DFA2
:10056000E2DF0895E0E4F1E0108611860895E0E40A
:10057000F1E081818111FDCF0895F9DFE0E4F1E040
:1005800081ED808382E0828381E087830895CF922A
:10059000DF92EF92FF9280910E3E90910F3EA091DC
:1005A000103EB091113EBB231CF44F96A11DB11D0E
:1005B0006C017D01689414F8F594E794D794C7947E
:1005C0001694D1F7CFDFC0924C01D0924D01FF902D
:1005D000EF90DF90CF9008951F920F920FB60F9279
:1005E00011242F933F934F935F936F937F938F9338
:1005F0009F93AF93BF93EF93FF93E0E4F1E0838188
:10060000826083838AE692E92AD0FF91EF91BF91BD
:10061000AF919F918F917F916F915F914F913F919A
:100620002F910F900FBE0F901F901895E0E0F8E00B
:10063000858180688583089577DDE0E0F8E08CE6C9
:1006400095E08087918780EC8683F0DF0895E0E075
:10065000F8E0948195FFFDCF809302080895EF9212
:10066000FF920F931F93CF93DF938C017C01C0E027
:10067000D0E005C0F70181917F01E9DF2196F80103
:1006800001900020E9F73197E01BF10BCE17DF074F
:1006900088F3DF91CF911F910F91FF90EF90089514
:1006A000DEDF80E0D4DF0895E0E0F8E08481882395
:1006B000ECF7809100080895CF92DF92EF92FF92BD
:1006C0000F931F93CF93DF937C016B016132710510
:1006D00024F06894CC24C5F8D12CDD20C4F0E701C7
:1006E00000E010E07E010F5F1F4FDEDF89938A304C
:1006F00021F0882311F08D3031F4F7011082C016FB
:10070000D1063CF404C07E01C016D1065CF7F701A7
:100710001082DF91CF911F910F91FF90EF90DF90AA
:10072000CF9008950F931F93CF93DF9300D0CDB751
:10073000DEB7082F192F9F938F938FE692E99F932F
:100740008F932ED24AE050E0BE016F5F7F4F802F23
:10075000912FD1D00F900F900F900F900F900F907E
:10076000DF91CF911F910F9108950F931F93CF9316
:10077000DF936EE772E983E29EE3DBD1892B19F404
:1007800083E892E98DDF68E872E983E29EE3CDD1E8
:10079000EC0162E072E980E090E0C7D18C011F9328
:1007A0008F93DF93CF938AE892E99F938F9383E4AB
:1007B0009EE39F938F9307D26EE972E9CE01B9D180
:1007C000EDB7FEB73896EDBFFEBF892B39F48AE945
:1007D00092E966DFB80184E99EE3B4D165EA72E983
:1007E000CE01A7D1892B51F481EA92E959DFB801F2
:1007F00082E19EE3A7D181E08093063E68EA72E938
:10080000CE0197D1892B29F481E08093053E109287
:10081000A63E6BEA72E9CE018CD1892B09F51F93B4
:100820000F938EEA92E99F938F9383E49EE39F93C5
:100830008F93C9D183E49EE333DFC80173DF6093F4
:100840000E3E70930F3E8093103E9093113E81E0D8
:100850008093033E0F900F900F900F900F900F908A
:1008600069EB72E9CE0165D1892B51F4B80183E7B8
:100870009EE368D18AE08093833E81E08093043ECA
:100880006CEB72E9CE0155D1892B19F481E080938C
:10089000023E1882F8011082DF91CF911F910F91D3
:1008A00008951F920F920FB60F9211242F933F932A
:1008B0004F935F936F937F938F939F93AF93BF9368
:1008C000EF93FF9360E270E083E29EE3F5DE81E068
:1008D0008093073EFF91EF91BF91AF919F918F91D0
:1008E0007F916F915F914F913F912F910F900FBE2C
:1008F0000F901F901895A0E0B0E0E0E8F4E043C44A
:100900005C016B017A016115710519F0FB018083AF
:100910009183E114F10429F0C7010297839708F04D
:10092000E2C0E5012196F5011081812F90E0F4D01D
:10093000892B11F05E01F5CF1D3229F42196F501C6
:10094000118101E007C01B3221F4E5012296F50177
:10095000118100E0E114F10409F1F0E1EF16F10476
:1009600029F43EC010E3E114F10421F128E0E2167D
:10097000F10401F154F4E2E0EE16F10421F5812CCA
:10098000912CA12CB0E4BB2E3DC0FAE0EF16F1048F
:1009900039F020E1E216F104B1F42FC0103311F167
:1009A000FAE0EF2EF12CACEC8A2E982CA82CACE0BF
:1009B000BA2E28C078E0E72EF12C812C912CA12CA6
:1009C000E0E1BE2E1FC060E070E080E090E897019B
:1009D0000F2C000C440B550BA9D349015A0112C02E
:1009E000103359F488818F7D883509F0BBCF198188
:1009F0002296026080E1E82EF12C812C912CA12C12
:100A000068E0B62E40E060E070E0CB0127010F2CDB
:100A1000000C66087708FE0150ED352E310E29E0F6
:100A2000231570F42FEB210F2A3118F439EC332EF3
:100A300006C02FE9210F2A3110F529EA322E310E96
:100A4000232D30E02E153F05D4F447FD15C0861642
:100A50009706A806B90668F0A301920158D3630D62
:100A6000711D811D911D61307105810520E892077E
:100A700010F04FEF01C041E021961081CCCF202F24
:100A80002170C114D10471F0442329F02197F6019B
:100A9000C083D18307C001FF19C02297F601C0832C
:100AA000D18314C047FF12C0222329F060E070E018
:100AB00080E090E804C06FEF7FEF8FEF9FE722E2C6
:100AC00030E02093A73E3093A83E09C0222381F056
:100AD00090958095709561957F4F8F4F9F4F462FD2
:100AE000372F282F12C040E030E020E090E00DC00A
:100AF00097FFF5CF82E290E08093A73E9093A83EC7
:100B00006FEF7FEF8FEF9FE7EACF642F732F822F76
:100B1000CDB7DEB7E1E150C391110C94D407803218
:100B200019F089508550C8F7089540E05EE311D070
:100B30000895FB01DC018D91019080190110D9F31A
:100B4000990B0895FB01DC0101900D920020E1F763
:100B50000895FA01A191B081009719F41097E1F07E
:100B6000CD01DC01CD010D90002011F4C00113C0B6
:100B7000FB012191222319F02015D9F7F3CFFB01B6
:100B80002191201519F41E92119606C02223C1F757
:100B90000D900020A1F7D001FA01A193B083089530
:100BA000A0E0B0E0E5EDF5E0FDC2AE014B5F5F4FC8
:100BB000FA0161917191AF018091AB3E9091AC3E91
:100BC00021D0E2E008C3AEE0B0E0E8EEF5E0E8C234
:100BD0000D891E8986E08C8309831A838FEF9FE736
:100BE0008D839E83AE01475E5F4F6F89788DCE0106
:100BF000019608D0EF81F885E00FF11F10822E9644
:100C0000E4E0E7C2ABE0B0E0E7E0F6E0BBC26C01D5
:100C10007B018A01FC0116821782838181FFBFC19B
:100C2000CE0101963C01F6019381F70193FD859178
:100C300093FF81917F01882309F4ADC1853239F496
:100C400093FD859193FF81917F01853221F4B60157
:100C500090E0C3D1E8CF912C212C312CFFE1F3158A
:100C6000D8F08B3279F038F4803279F08332A1F405
:100C7000232D20611DC08D3261F0803369F4232D56
:100C8000216016C0832D8260382EE32DE4603E2E55
:100C90002AC0F32DF8601DC037FC2DC020ED280FB1
:100CA0002A3040F08E32B9F436FC75C1232D206411
:100CB000322E19C036FE06C08AE0989E200D1124FF
:100CC000922E11C0EAE02E9E200D1124222EF32D2B
:100CD000F0623F2E08C08C3621F4832D8068382EB8
:100CE00002C0883641F4F70193FD859193FF81910D
:100CF0007F018111B3CF982F9F7D9554933028F4B5
:100D00000C5F1F4F9FE399830DC0833631F083370B
:100D100071F0833509F055C020C0F80180818983C6
:100D20000E5F1F4F88248394912C530112C0280119
:100D3000F2E04F0E511CF801A080B18036FE03C0D6
:100D4000692D70E002C06FEF7FEFC5013BD14C0110
:100D50008201F32DFF773F2E15C0280122E0420EBD
:100D6000511CF801A080B18036FE03C0692D70E0EF
:100D700002C06FEF7FEFC5011AD14C01F32DF0686F
:100D80003F2E820133FC19C0822D90E0881699060F
:100D9000A0F4B60180E290E020D12A94F5CFF501CD
:100DA00037FC859137FE81915F01B60190E015D146
:100DB00021102A9421E0821A91088114910479F774
:100DC000E1C0843611F0893639F5F80137FE07C0E5
:100DD00060817181828193810C5F1F4F08C06081A7
:100DE0007181072E000C880B990B0E5F1F4FF32D9E
:100DF000FF763F2E97FF09C090958095709561957D
:100E00007F4F8F4F9F4FF0683F2E2AE030E0A301C5
:100E100020D1882E861844C0853731F4232D2F7EAB
:100E2000B22E2AE030E025C0932D997FB92E8F365F
:100E3000C1F018F4883579F0AEC0803719F08837E2
:100E400021F0A9C0E92FE061BE2EB4FE0DC0FB2D3C
:100E5000F460BF2E09C034FE0AC0292F2660B22ECE
:100E600006C028E030E005C020E130E002C020E10B
:100E700032E0F801B7FE07C0608171818281938101
:100E80000C5F1F4F06C06081718180E090E00E5FB3
:100E90001F4FA301DED0882E8618FB2DFF773F2E33
:100EA00036FE0DC0232D2E7FA22E891458F434FE59
:100EB0000BC032FC09C0832D8E7EA82E05C0B82C35
:100EC000A32C03C0B82C01C0B92CA4FE0FC0FE0196
:100ED000E80DF11D8081803321F49A2D997EA92E91
:100EE00009C0A2FE06C0B394B39404C08A2D8678CC
:100EF00009F0B394A3FC10C0A0FE06C0B21480F4A5
:100F0000280C922C9B180DC0B21458F4B60180E244
:100F100090E063D0B394F8CFB21418F42B1802C049
:100F2000982C212CA4FE0FC0B60180E390E055D090
:100F3000A2FE16C0A1FC03C088E790E002C088E5CD
:100F400090E0B6010CC08A2D867851F0A1FE02C057
:100F50008BE201C080E2A7FC8DE2B60190E03DD0BB
:100F6000891430F4B60180E390E037D09A94F8CF3A
:100F70008A94F301E80DF11D8081B60190E02DD037
:100F80008110F6CF222009F44ECEB60180E290E027
:100F900024D02A94F7CFF6018681978102C08FEF83
:100FA0009FEF2B96E2E107C1992788270895FC015E
:100FB0000590615070400110D8F7809590958E0F84
:100FC0009F1F0895FC016150704001900110D8F7F7
:100FD000809590958E0F9F1F08950F931F93CF9329
:100FE000DF93FB01238121FD03C08FEF9FEF2CC016
:100FF00022FF16C04681578124813581421753074D
:1010000044F4A081B1819D012F5F3F4F2083318344
:101010008C93268137812F5F3F4F2683378314C0FF
:101020008B01EC01FB010084F185E02D0995892BF2
:10103000E1F6D80116968D919C9117970196169618
:101040008D939C931797CE01DF91CF911F910F91B4
:101050000895FA01AA27283051F1203181F1E8944E
:101060006F936E7F6E5F7F4F8F4F9F4FAF4FB1E09B
:101070003ED0B4E03CD0670F781F891F9A1FA11D96
:10108000680F791F8A1F911DA11D6A0F711D811D97
:10109000911DA11D20D009F468943F912AE0269F5C
:1010A00011243019305D3193DEF6CF010895462FBB
:1010B0004770405D4193B3E00FD0C9F7F6CF462F9C
:1010C0004F70405D4A3318F0495D31FD4052419305
:1010D00002D0A9F7EACFB4E0A695979587957795C2
:1010E0006795BA95C9F700976105710508959B0149
:1010F000AC010A2E06945795479537952795BA95D2
:10110000C9F7620F731F841F951FA01D0895DB018F
:101110008F939F932DD0BF91AF91A29F800D911D72
:10112000A39F900DB29F900D11240895A1E21A2E55
:10113000AA1BBB1BFD010DC0AA1FBB1FEE1FFF1F7B
:10114000A217B307E407F50720F0A21BB30BE40BCB
:10115000F50B661F771F881F991F1A9469F7609512
:101160007095809590959B01AC01BD01CF010895CC
:101170003AD0A59F900DB49F900DA49F800D911D16
:10118000112408952F923F924F925F926F927F9217
:101190008F929F92AF92BF92CF92DF92EF92FF9287
:1011A0000F931F93CF93DF93CDB7DEB7CA1BDB0B33
:1011B000CDBFDEBF09942A88398848885F846E8451
:1011C0007D848C849B84AA84B984C884DF80EE806B
:1011D000FD800C811B81AA81B981CE0FD11DCDBFAD
:1011E000DEBFED010895A29FB001B39FC001A39F90
:1011F00001D0B29F700D811D1124911D0895F894A6
:02120000FFCF1E
:1012020000005374616E64627920556E69740A72CB
:10121200656164792100493A53544152544544006E
:10122200433A48656C6C6F0D0A004E65772044693D
:1012320073706C61790A0052656365697665642032
:10124200536875742D0A646F776E205265717565E7
:1012520073742100676F696E6720746F20736C6509
:101262006570202E2E2E0A00434D500A00506172E6
:1012720073696E6720272573273A0A0054657374D1
:10128200004563686F003A004D433A2025732C20D5
:10129200504C3A2025730A0041434B5F44310041D0
:1012A200434B5F44320053520042550041434B3A94
:0D12B20042553A25730A0042520053420093
:00000001FF
