:1000000019C033C032C00CC133C12FC033C72DC09B
:100010002CC02BC080C129C028C027C026C025C045
:1000200024C023C022C021C020C01FC02EC91DC0B3
:100030001CC01BC011241FBECFEFCDBFDFE3DEBF4E
:100040001EE3A0E0BEE3E1E1FFE102C005900D92F6
:10005000A430B107D9F72FE3A4E0BEE301C01D929D
:10006000AF30B207E1F728D2D1CD1EC1E0E0F6E013
:10007000808180830895E0E0F6E080818160808364
:100080000895F4DF80E38093A000F5DF0895E0E0B9
:10009000F6E0838580FFFDCF08951F93CF93DF9314
:1000A000C0E0D6E011E01887F2DF1B87DF91CF9127
:1000B0001F910895CF93DF93C0E0D6E085E08E8353
:1000C000ECDF88899989DF91CF910895CF93DF93F1
:1000D000C0E0D6E081E08E83E0DF88899989DF91F6
:1000E000CF910895CF93DF93C0E0D6E08EE18E8369
:1000F000D4DF88899989DF91CF910895DBDF21E0F2
:100100008538934008F420E0822F089510925E3ED7
:1001100010925D3E0895E0E0F4E08189887F818B54
:1001200081898460818B8589887F858B85898460BE
:10013000858B0895E0E0F4E080E88683818380E4A5
:10014000818380E1858381838CE0828382898860DA
:10015000828B83898860838BE0E2F4E083E1818392
:1001600080E28283A0E4B4E08FE011968C93119733
:1001700015961C9281E08183CEDF0895809108045A
:1001800086958695869591E08927817090E00895FF
:10019000E0E0F4E082898360828B83898360838BD3
:1001A00008951816190644F48091613E882321F0C1
:1001B00081E080932504089581E0809326040895CA
:1001C000E0E0F4E080E8858392E49A95F1F700C0DE
:1001D000868382E48A95F1F700C00895E0E4F4E0B4
:1001E0009481907F948394818F70982B9483089549
:1001F00080E480930504089580E4809306040895C4
:10020000E0E2F4E084E085838183089584E08093D4
:1002100026040895E0E2F4E085898960858B0895DD
:100220001F920F920FB60F9211248F93EF93FF93AB
:100230008091090482FF08C081E080935E3EE9E07E
:10024000F4E08081847080838091090483FF08C07A
:1002500081E08093163EE9E0F4E08081887080833D
:10026000FF91EF918F910F900FBE0F901F901895F7
:100270001F920F920FB60F9211248F93EF93FF935B
:100280008091290485FF08C081E080935D3EE9E20A
:10029000F4E0808180728083FF91EF918F910F90C5
:1002A0000FBE0F901F9018951F920F920FB60F92CE
:1002B00011242F933F934F935F936F937F938F936B
:1002C0009F93AF93BF93EF93FF9382E19CE93CD65A
:1002D000FF91EF91BF91AF919F918F917F916F911E
:1002E0005F914F913F912F910F900FBE0F901F90F4
:1002F0001895E0E0FAE08BE29AE086A397A381E00C
:100300008287089587DFF5DF089580915D3E811132
:1003100010925D3E08951F920F920FB60F92112416
:100320001092153E0F900FBE0F901F901895909150
:100330005E3E8091163E811102C0992341F01092D9
:100340005E3E1092163E81E08093D83EF8D42FEFA7
:1003500080E792E0215080409040E1F700C000002B
:100360000895FF920F931F93CF93DF938091083EE0
:100370008823B9F01092083E84EB94E08093023E0B
:100380009093033E8AE095E08093193E90931A3E45
:1003900085EC94E08093173E9093183E81E090E0C6
:1003A00000DFE091023EF091033E09952FEF80E7D8
:1003B00092E0215080409040E1F700C00000109290
:1003C000D93E1092DA3E0AE11CE9C2E7DEE32DC015
:1003D0008FE19EE40197F1F700C000008091DA3EC2
:1003E0008F938091D93E8F931F930F93DF93CF9379
:1003F00013D9CE0188D58091D93E9091DA3E0196ED
:100400008093D93E9093DA3E0F900F900F900F900B
:100410000F900F9020910A3E211110C08D32914013
:1004200020F081E080930E3E09C0F0905E3EA6DE93
:1004300021E0892B09F020E0F21650F28CE29CE9D1
:1004400062D580915E3E882339F010925E3EE09145
:10045000193EF0911A3E099591DE892B39F01092E0
:10046000163EE091173EF091183E099580910E3EA0
:10047000882349F088E39CE946D510920E3E1092FD
:10048000D83E80E05CD4DF91CF911F910F91FF9017
:1004900008953CDE4FDE36DF7BDE22D535D1F1DD3F
:1004A00081E1ECE4FCE9A2EABEE301900D928A95B9
:1004B000E1F7FDD178940895ECDF8DE59CE9D4D186
:1004C00081E79CE920D581E090E06BDE82E08093BB
:1004D000613EC1E9D2E00F2EF1EBCF2EF1E0DF2E2D
:1004E000F02D0F2EF7E9EF2EF1E0FF2EF02D8E010B
:1004F0008091613E813039F020F0823029F4E801AA
:1005000003C0E70101C0E601FE010995F1CFE0E576
:10051000F0E0808182608083808181608083889523
:10052000089581E090E03DDEF0DE8091153E81117E
:1005300001C06CDE80915E3E882319F010925E3E11
:10054000FAD18091163E882329F01092163E8BE74F
:100550009CE9D9D48091143E882319F04DD510928E
:10056000143E8091133E882359F01092133E8FD190
:100570008BED9EE379D16ED183EC9EE375D1EAD405
:100580008091123E882361F082D185E89CE96CD18C
:100590001092123E8091D83ED2D381E080930E3EDD
:1005A0008091103E882339F072D182EA9EE35CD1BB
:1005B0001092103ECFD480910F3E882311F180918C
:1005C000D73E8F938091D63E8F938091D53E8F9367
:1005D0008091D43E8F9382EA9CE99F938F9382E728
:1005E0009EE39F938F9318D882E79EE3ADD4109239
:1005F0000F3EFDD3F0D3AED48DB79EB708968DBF16
:100600009EBF80910E3E882379F010920E3E88E3C3
:100610009CE99AD49FEF20E782E0915020408040EF
:10062000E1F700C0000073DF80910D3E8823C1F028
:1006300010920D3E4BDD9F938F938FEB9CE99F9320
:100640008F9382E79EE39F938F93E6D782E79EE3A3
:100650007BD480D40F900F900F900F900F900F903D
:1006600080910C3E8823C1F010920C3E3BDD9F939D
:100670008F9385EC9CE99F938F9382E79EE39F93F2
:100680008F93CAD782E79EE35FD464D40F900F9014
:100690000F900F900F900F9080910B3E8823C1F028
:1006A00010920B3E07DD9F938F938BEC9CE99F93F9
:1006B0008F9382E79EE39F938F93AED782E79EE36B
:1006C00043D448D40F900F900F900F900F900F903D
:1006D0008091073E81111092073E8091063E88234B
:1006E00041F01092063E80915B3E90915C3E15D1A8
:1006F00031D49FEF20E782E0915020408040E1F725
:1007000000C000001DD108952FE78AE196E0215036
:1007100080409040E1F700C000006EDD83E05EDDC8
:1007200081E04EDD87E893E10197F1F700C000001A
:1007300083E054DD81E044DD87E893E10197F1F740
:1007400000C0000083E04ADD81E03ADD87E893E104
:100750000197F1F700C0000082E040DD81E030DD6C
:1007600087E893E10197F1F700C0000082E036DDF1
:1007700081E026DD87E893E10197F1F700C00000F2
:1007800088E02CDD81E01CDD87E893E10197F1F73B
:1007900000C0000080E022DD81E012DD87E893E107
:1007A0000197F1F700C000008CE018DD81E008DD62
:1007B00087E893E10197F1F700C0000080E00EDDCB
:1007C00081E0FEDC87E893E10197F1F700C00000CB
:1007D00086E004DD81E0F4DC87E893E10197F1F73E
:1007E00000C0000080E0FADC81E0EADC87E893E109
:1007F0000197F1F700C0000086E0F0DC81E0E0DC6A
:1008000087E893E10197F1F700C0000080E0E6DCA3
:1008100081E0D6DC87E893E10197F1F700C00000A2
:1008200081E0DCDC81E0CCDC87E893E10197F1F743
:1008300000C000000895CF93C82FDADC8C2F82957A
:100840008F70CCDC81E0BCDC8C2FC8DC81E0B8DCB4
:10085000CF910895D1DC8CE0C1DC81E0B1DC80E097
:10086000BDDC81E0ADDC0895CF93DF93EC01C0DC0B
:100870008881882349F021968A3011F4EBDF01C08A
:10088000DADF89918111F8CFDF91CF910895B4DC3F
:1008900080E0A4DC81E094DC81E0A0DC81E090DCFD
:1008A00087EA91E60197F1F700C000000895E0E0C3
:1008B000FAE082858E78828781818360818380815E
:1008C00080838FEF9FEF86AB97AB21852E7F2187AB
:1008D000A0E0B2E012962C911297226012962C930F
:1008E00021812061218321812062218320E031E068
:1008F00020935F3E3093603E20A731A780935B3EFC
:1009000090935C3E82A793A7808181608083089545
:100910008093280A9093290A089580932A0A909335
:100920002B0A089580915B3E90915C3E80932A0A49
:1009300090932B0A089510922A0A10922B0A089578
:1009400080912A0A90912B0A892B11F4EBDF0895EC
:1009500010922A0A10922B0A089584EB94E0809357
:10096000023E9093033E089592DF81ED9CE97CDF87
:100970008AE095E08093193E90931A3E85EC94E0CE
:100980008093173E9093183E089585EC94E08093F1
:10099000023E9093033E7BDF83EF9CE965DF8CEDA5
:1009A00094E08093193E90931A3E83EF94E08093F5
:1009B000173E9093183E08958CED94E08093023E8C
:1009C0009093033E64DF85E19DE94EDF8DEA94E07C
:1009D0008093193E90931A3E85E396E08093173EEC
:1009E0009093183E089583EF94E08093023E909395
:1009F000033E4DDF87E39DE937DF8AE496E080938D
:100A0000193E90931A3E8DEA94E08093173E90939E
:100A1000183E08952F923F924F925F926F927F926D
:100A20008F929F92AF92BF92CF92DF92EF92FF92FE
:100A30000F931F93CF93DF9300D000D0CDB7DEB7D5
:100A40008AE095E08093023E9093033E80904C01B3
:100A500090904D018091480190914901881A990A1E
:100A6000A12CB12C880C991CAA1CBB1C880C991CAD
:100A7000AA1CBB1C880C991CAA1CBB1C880C991CAA
:100A8000AA1CBB1C880C991CAA1CBB1CC501B40168
:100A900020E831E541E050E022D42B833C83142F41
:100AA000052FC22ED32EE42EF52EC114D104E1045D
:100AB000F104B9F4ABC00197F1F780E8881A81E539
:100AC000980A81E0A80AB1082F5F3F4FC901032EA1
:100AD000000CAA0BBB0B8C159D05AE05BF0518F0CD
:100AE00005C020E030E088E190E0E5CFC501B40129
:100AF00020E13EE040E050E0F2D3B22EA32E942E4F
:100B0000852E422E532E642E752E2CE330E040E0CD
:100B100050E0E5D3222E332EB42FA52FF62F798364
:100B20008A83E92FC114D104E104F10439F0EAE029
:100B3000CE16D104E104F104C8F51AC0EF938A81FE
:100B40008F9399819F93FF93AF93BF933F922F927F
:100B50007F926F925F924F9289E59DE99F938F9369
:100B600082E79EE39F938F9357D5CDBFDEBF3BC0F7
:100B70009F938F937F936F935F934F933F932F93A5
:100B80008F929F92AF92BF920F931F939C819F93DE
:100B9000EB81EF9383E79DE99F938F9382E79EE339
:100BA0009F938F9339D5CDBFDEBF1DC09F938F9389
:100BB0007F936F935F934F933F932F938F929F9267
:100BC000AF92BF920F931F939C819F93EB81EF9302
:100BD0008EE89DE99F938F9382E79EE39F938F9387
:100BE0001BD5CDBFDEBF53DE82EA9EE33DDE32DEA3
:100BF00082E79EE339DE8DEA94E08093193E90937C
:100C00001A3E8093173E9093183E19C0C501B40157
:100C100020E13EE040E050E062D3422E532E642EAD
:100C2000752E2CE330E040E050E059D3222E332ED5
:100C3000B42FA52FF62F79838A83E92F7FCF2496AF
:100C4000CDBFDEBFDF91CF911F910F91FF90EF904D
:100C5000DF90CF90BF90AF909F908F907F906F90DC
:100C60005F904F903F902F90089511DE89EA9DE9A3
:100C7000FBDD81E08093093E8AE0E9ECFDE9A2E634
:100C8000BEE301900D928A95E1F782E08093D83E11
:100C900056D00895FCDD83ED9DE9E6DD82E080938A
:100CA000D83E8AE0E2EFFDE9A2E6BEE301900D92B4
:100CB0008A95E1F782E043D00895E0E0F4E0848192
:100CC0008061848381E08093013E0895E0E0F4E058
:100CD00084818F7E84831092013E0895E0E2F4E0E7
:100CE00084818D7F848381E08093003E0895E0E2DB
:100CF000F4E08481826084831092003E0895CF9353
:100D0000C6DD8CEF9DE9B0DDC091153E8091113EAE
:100D1000CC2319F08823F1F30EC0B9DD87E19EE9F9
:100D2000A3DD04C08091113E811106C0E7D9811175
:100D3000F9CFC1E001C0C0E08C2FCF910895CF93CF
:100D40008130A1F018F0823011F138C08091613EFD
:100D5000823019F4D4DF882389F1C9DF80E090E084
:100D600020DAE9DDB3DF1092613E28C0C1E0C09314
:100D7000613E0EDAA2DF86E490E10197F1F700C050
:100D8000C3DCC093083E80910A3E8823B9F080E11D
:100D9000E1E3FEE9ABEDBEE301900D928A95E1F748
:100DA00080E1E1E4FEE9A3ECBEE301900D928A95B7
:100DB000E1F783DF93DF82E08093613ECF91089576
:100DC000E0E4F1E0108611860895E0E4F1E081812D
:100DD0008111FDCF089510920A3EF7DFE0E4F1E0C3
:100DE00089EF808382E0828381E087830895CF92B8
:100DF000DF92EF92FF92C090D43ED090D53EE0902B
:100E0000D63EF090D73EFF202CF48FE1C80ED11CC7
:100E1000E11CF11C689414F8F594E794D794C794F6
:100E20001694D1F7FF92EF92DF92CF9281E59EE97F
:100E30009F938F9382E79EE39F938F93EDD382E7F7
:100E40009EE382D0BDDF8DB79EB708968DBF9EBF53
:100E5000C114D104E104F10421F4C12CD12C760198
:100E6000C394C0924C01D0924D01FF90EF90DF905F
:100E7000CF9008951F920F920FB60F9211242F93C7
:100E80003F934F935F936F937F938F939F93AF9312
:100E9000BF93EF93FF93E0E4F1E08381826083836B
:100EA0008EE69EE930D081E080930A3E8093D83E62
:100EB00046DFFF91EF91BF91AF919F918F917F910D
:100EC0006F915F914F913F912F910F900FBE0F90B7
:100ED0001F901895E0E0F8E085818068858308958B
:100EE0008FD9E0E0F8E08CE695E08087918780EC90
:100EF0008683F0DF0895E0E0F8E0948195FFFDCF70
:100F0000809302080895EF92FF920F931F93CF935F
:100F1000DF938C017C01C0E0D0E005C0F701819136
:100F20007F01E9DF2196F80101900020E9F7319770
:100F3000E01BF10BCE17DF0788F3DF91CF911F91F4
:100F40000F91FF90EF900895DEDF8AE0D4DF80E01C
:100F5000D2DF089583E79EE9F7DF0895E0E0F8E047
:100F600084818823ECF7809100080895CF92DF9266
:100F7000EF92FF920F931F93CF93DF937C016B014E
:100F80006132710524F06894CC24C5F8D12CDD20A1
:100F9000C4F0E70100E010E07E010F5F1F4FDEDFCD
:100FA00089938A3021F0882311F08D3031F4F701D4
:100FB0001082C016D1063CF404C07E01C016D106D2
:100FC0005CF7F7011082DF91CF911F910F91FF9095
:100FD000EF90DF90CF900895CF93DF9300D0CDB7FF
:100FE000DEB74AE050E0BE016F5F7F4F9AD10F90AD
:100FF0000F90DF91CF9108950F931F93CF93DF93BD
:101000006CEE7EE38BE19EE3D1D269E77EE98CEE64
:101010009EE3BFD2D82FC92F60E17CE980E090E049
:10102000B8D2082F192F9F938F93CF93DF938BE71D
:101030009EE99F938F9382E79EE39F938F93ECD2D9
:101040006FE87EE98D2F9C2FA8D22DB73EB7285F81
:101050003F4F2DBF3EBF892B39F48BE89EE974DFEB
:1010600084E99EE971DF76DF6DE97EE98D2F9C2FA3
:1010700094D2892B49F489E99EE966DF602F712FAC
:101080008BED9EE393D266DF64EA7EE98D2F9C2F81
:1010900084D2892B59F480EA9EE956DF602F712FA4
:1010A00083EC9EE383D281E08093133E6BEA7EE97A
:1010B0008D2F9C2F72D2892B49F487EA9EE944DF59
:1010C00081E08093123E1092D83E44DF62EB7EE9CD
:1010D0008D2F9C2F62D2892B39F48EEA9EE934DF62
:1010E00081E08093113E36DF65EB7EE98D2F9C2FEA
:1010F00054D2892B11F51F930F9388EB9EE99F9390
:101100008F9382E79EE39F938F9386D282E79EE33D
:101110001BDF802F912F60DF6093D43E7093D53E0C
:101120008093D63E9093D73E81E080930F3E0F9000
:101130000F900F900F900F900F9067EC7EE98D2F1E
:101140009C2F2BD2892B71F483EC9EE9FDDE602F5E
:10115000712F82EA9EE32AD28AE08093B23E81E038
:101160008093103E6AEC7EE98D2F9C2F16D2892B3E
:1011700019F481E080930E3E61ED7EE98D2F9C2F66
:101180000CD2892B31F48DEC9EE9DEDE81E0809378
:101190000D3E68ED7EE98D2F9C2FFFD1892B31F418
:1011A00084ED9EE9D1DE81E080930C3E6FED7EE917
:1011B0008D2F9C2FF2D1892B31F48BED9EE9C4DE6B
:1011C00081E080930B3E66EE7EE98D2F9C2FE5D16A
:1011D000892B61F482EE9EE9B7DE8091093E882377
:1011E00029F01092093E89EE9EE9AEDE69EF7EE9B4
:1011F0008D2F9C2FD2D1892B79F485EF9EE9A4DE27
:10120000802F912F9FD180935F3E9093603E80DB33
:1012100081E08093073E9EDE60E07FE98D2F9C2F6A
:10122000BCD1892B69F48CEF9EE98EDE802F912F43
:1012300089D180935B3E90935C3E81E08093063E33
:1012400067E07FE98D2F9C2FA8D1892B49F483E09B
:101250009FE97ADE82E69EE377DE1092623E7ADED6
:101260006EE07FE98D2F9C2F98D1892B49F48AE07D
:101270009FE96ADE602F712F82E69EE397D16ADED6
:10128000DF91CF911F910F9108951F920F920FB68A
:101290000F9211242F933F934F935F936F937F93FC
:1012A0008F939F93AF93BF93EF93FF9360E270E0B0
:1012B0008CEE9EE35BDE81E08093143EFF91EF9124
:1012C000BF91AF919F918F917F916F915F914F915E
:1012D0003F912F910F900FBE0F901F901895A1E294
:1012E0001A2EAA1BBB1BFD010DC0AA1FBB1FEE1FA0
:1012F000FF1FA217B307E407F50720F0A21BB30BEB
:10130000E40BF50B661F771F881F991F1A9469F766
:1013100060957095809590959B01AC01BD01CF01C2
:101320000895A0E0B0E0E6E9F9E034C45C016B01A7
:101330007A016115710519F0FB0180839183E11435
:10134000F10429F0C7010297839708F0E2C0E50194
:101350002196F5011081812F90E012D1892B11F097
:101360005E01F5CF1D3229F42196F501118101E0CE
:1013700007C01B3221F4E5012296F501118100E03E
:10138000E114F10409F1F0E1EF16F10429F43EC093
:1013900010E3E114F10421F128E0E216F10401F177
:1013A00054F4E2E0EE16F10421F5812C912CA12CED
:1013B000B0E4BB2E3DC0FAE0EF16F10439F020E1B5
:1013C000E216F104B1F42FC0103311F1FAE0EF2E60
:1013D000F12CACEC8A2E982CA82CACE0BA2E28C0AC
:1013E00078E0E72EF12C812C912CA12CE0E1BE2E8F
:1013F0001FC060E070E080E090E897010F2C000CC7
:10140000440B550B6CDF49015A0112C0103359F4DB
:1014100088818F7D883509F0BBCF198122960260C3
:1014200080E1E82EF12C812C912CA12C68E0B62EC5
:1014300040E060E070E0CB0127010F2C000C660853
:101440007708FE0150ED352E310E29E0231570F49A
:101450002FEB210F2A3118F439EC332E06C02FE977
:10146000210F2A3110F529EA322E310E232D30E0DA
:101470002E153F05D4F447FD15C086169706A8061D
:10148000B90668F0A30192016BD3630D711D811D34
:10149000911D61307105810520E8920710F04FEF32
:1014A00001C041E021961081CCCF202F2170C114C2
:1014B000D10471F0442329F02197F601C083D18330
:1014C00007C001FF19C02297F601C083D18314C061
:1014D00047FF12C0222329F060E070E080E090E82E
:1014E00004C06FEF7FEF8FEF9FE722E230E02093A1
:1014F0000D3F30930E3F09C0222381F090958095D7
:10150000709561957F4F8F4F9F4F462F372F282F14
:1015100012C040E030E020E090E00DC097FFF5CF32
:1015200082E290E080930D3F90930E3F6FEF7FEF4C
:101530008FEF9FE7EACF642F732F822FCDB7DEB7EF
:10154000E1E141C3FC0188279927E89421912032E9
:10155000E9F3293010F02E30C8F32B3241F02D3250
:1015600039F4689404C00E94040B820F911D2191EC
:1015700020532A30C0F31EF4909581959F4F089513
:1015800091110C94FD0C803219F089508550C8F7E8
:10159000089544E05EE311D00895FB01DC018D91D4
:1015A000019080190110D9F3990B0895FB01DC011A
:1015B00001900D920020E1F70895FA01A191B08108
:1015C000009719F41097E1F0CD01DC01CD010D90E9
:1015D000002011F4C00113C0FB012191222319F056
:1015E0002015D9F7F3CFFB012191201519F41E9294
:1015F000119606C02223C1F70D900020A1F7D0015B
:10160000FA01A193B08308957AE0979F902D879F68
:10161000802D910D11240895AEE0B0E0E1E1FBE0F2
:10162000C6C20D891E8986E08C8309831A838FEFD9
:101630009FE78D839E83AE01475E5F4F6F89788DF4
:10164000CE01019608D0EF81F885E00FF11F1082DE
:101650002E96E4E0C5C2ABE0B0E0E0E3FBE099C267
:101660006C017B018A01FC0116821782838181FF54
:10167000BFC1CE0101963C01F6019381F70193FDB4
:10168000859193FF81917F01882309F4ADC1853253
:1016900039F493FD859193FF81917F01853221F487
:1016A000B60190E0C3D1E8CF912C212C312CFFE181
:1016B000F315D8F08B3279F038F4803279F0833238
:1016C000A1F4232D20611DC08D3261F0803369F4B7
:1016D000232D216016C0832D8260382EE32DE46017
:1016E0003E2E2AC0F32DF8601DC037FC2DC020ED22
:1016F000280F2A3040F08E32B9F436FC75C1232D04
:101700002064322E19C036FE06C08AE0989E200D55
:101710001124922E11C0EAE02E9E200D1124222EBB
:10172000F32DF0623F2E08C08C3621F4832D8068A3
:10173000382E02C0883641F4F70193FD859193FF5E
:1017400081917F018111B3CF982F9F7D9554933064
:1017500028F40C5F1F4F9FE399830DC0833631F04F
:10176000833771F0833509F055C020C0F8018081BE
:1017700089830E5F1F4F88248394912C530112C0DC
:101780002801F2E04F0E511CF801A080B18036FE16
:1017900003C0692D70E002C06FEF7FEFC5013BD140
:1017A0004C018201F32DFF773F2E15C0280122E066
:1017B000420E511CF801A080B18036FE03C0692D95
:1017C00070E002C06FEF7FEFC5011AD14C01F32D1D
:1017D000F0683F2E820133FC19C0822D90E08816FC
:1017E0009906A0F4B60180E290E020D12A94F5CFCA
:1017F000F50137FC859137FE81915F01B60190E0DC
:1018000015D121102A9421E0821A910881149104A3
:1018100079F7E1C0843611F0893639F5F80137FEE1
:1018200007C060817181828193810C5F1F4F08C066
:1018300060817181072E000C880B990B0E5F1F4F82
:10184000F32DFF763F2E97FF09C0909580957095F8
:1018500061957F4F8F4F9F4FF0683F2E2AE030E019
:10186000A30120D1882E861844C0853731F4232D5A
:101870002F7EB22E2AE030E025C0932D997FB92E1D
:101880008F36C1F018F4883579F0AEC0803719F082
:10189000883721F0A9C0E92FE061BE2EB4FE0DC04B
:1018A000FB2DF460BF2E09C034FE0AC0292F26602C
:1018B000B22E06C028E030E005C020E130E002C0D2
:1018C00020E132E0F801B7FE07C0608171818281BA
:1018D00093810C5F1F4F06C06081718180E090E0B2
:1018E0000E5F1F4FA301DED0882E8618FB2DFF77D9
:1018F0003F2E36FE0DC0232D2E7FA22E891458F4C4
:1019000034FE0BC032FC09C0832D8E7EA82E05C08C
:10191000B82CA32C03C0B82C01C0B92CA4FE0FC056
:10192000FE01E80DF11D8081803321F49A2D997E0E
:10193000A92E09C0A2FE06C0B394B39404C08A2D98
:10194000867809F0B394A3FC10C0A0FE06C0B214C0
:1019500080F4280C922C9B180DC0B21458F4B601D8
:1019600080E290E063D0B394F8CFB21418F42B184F
:1019700002C0982C212CA4FE0FC0B60180E390E099
:1019800055D0A2FE16C0A1FC03C088E790E002C0BB
:1019900088E590E0B6010CC08A2D867851F0A1FE52
:1019A00002C08BE201C080E2A7FC8DE2B60190E0AC
:1019B0003DD0891430F4B60180E390E037D09A949A
:1019C000F8CF8A94F301E80DF11D8081B60190E013
:1019D0002DD08110F6CF222009F44ECEB60180E240
:1019E00090E024D02A94F7CFF6018681978102C037
:1019F0008FEF9FEF2B96E2E1E5C0992788270895A6
:101A0000FC010590615070400110D8F780959095C9
:101A10008E0F9F1F0895FC016150704001900110CE
:101A2000D8F7809590958E0F9F1F08950F931F9361
:101A3000CF93DF93FB01238121FD03C08FEF9FEF45
:101A40002CC022FF16C04681578124813581421760
:101A5000530744F4A081B1819D012F5F3F4F208344
:101A600031838C93268137812F5F3F4F26833783C5
:101A700014C08B01EC01FB010084F185E02D099578
:101A8000892BE1F6D80116968D919C9117970196B6
:101A900016968D939C931797CE01DF91CF911F914E
:101AA0000F910895FA01AA27283051F1203181F1D0
:101AB000E8946F936E7F6E5F7F4F8F4F9F4FAF4F56
:101AC000B1E03ED0B4E03CD0670F781F891F9A1F69
:101AD000A11D680F791F8A1F911DA11D6A0F711D1D
:101AE000811D911DA11D20D009F468943F912AE029
:101AF000269F11243019305D3193DEF6CF01089511
:101B0000462F4770405D4193B3E00FD0C9F7F6CF41
:101B1000462F4F70405D4A3318F0495D31FD405209
:101B2000419302D0A9F7EACFB4E0A695979587959F
:101B300077956795BA95C9F700976105710508957E
:101B40009B01AC010A2E069457954795379527952A
:101B5000BA95C9F7620F731F841F951FA01D0895C2
:101B6000DB018F939F930BD0BF91AF91A29F800D0C
:101B7000911DA39F900DB29F900D112408953AD00E
:101B8000A59F900DB49F900DA49F800D911D1124D1
:101B900008952F923F924F925F926F927F928F9211
:101BA0009F92AF92BF92CF92DF92EF92FF920F93EC
:101BB0001F93CF93DF93CDB7DEB7CA1BDB0BCDBF2F
:101BC000DEBF09942A88398848885F846E847D84C2
:101BD0008C849B84AA84B984C884DF80EE80FD80D5
:101BE0000C811B81AA81B981CE0FD11DCDBFDEBF73
:101BF000ED010895A29FB001B39FC001A39F01D042
:101C0000B29F700D811D1124911D0895F894FFCF8E
:101C1000000062616420495352006D656E75206357
:101C20006F756E7465723A2025640A006F757420B2
:101C30006F66206C6F6F7000676F696E6720746FDE
:101C400020736C656570202E2E2E0A0030392E30E0
:101C5000312E313939302031323A35370053746101
:101C60006E64627920556E69740A726561647921C7
:101C700000493A5354415254454400433A48656C34
:101C80006C6F0D0A00526563656976656420536860
:101C900075742D0A646F776E205265717565737463
:101CA000210057696C6C2077616B65207570206925
:101CB0006E20256C64207365636F6E64730A004345
:101CC000433A25640054503A25640033563A25645B
:101CD0000053686F77206E6578742042552020206D
:101CE0003E0A416374696F6E7320202020202020FB
:101CF000203E00446F204261636B7570204E6F7709
:101D000020203E0A57616B6520666F7220636F6EFC
:101D10006669673E00537572653F202020202020B1
:101D2000204E6F203E0A202020202020202020202E
:101D300020596573203E00537572653F2020202096
:101D40002020596573203E0A2020202020202020BA
:101D5000202020204E6F203E004554413A20202074
:101D6000202530326C753A2530326C753A25303288
:101D70006C750045544120256C7520202530326C4F
:101D8000753A2530326C753A2530326C7500455401
:101D90004120256C7564202530326C753A2530322F
:101DA0006C753A2530326C750057616B696E67202F
:101DB00042435520616E640A646F204261636B7513
:101DC00070206E6F77202E2E0057525F4241434B9A
:101DD00055500057616B696E672042435520666F0E
:101DE000720A436F6E66696775726174696F6E2EF1
:101DF0002E0057525F434F4E464947005761697462
:101E0000696E6720666F72204243550A484220740B
:101E10006F2073746F700057616974696E67206614
:101E20006F72203356330A746F20676F206C6F77A0
:101E300000424355207374617274696E6720757037
:101E400000506C656173652077616974202E2E2EB9
:101E50000057726974696E6720256C6420746F2066
:101E6000434D502052656769737465720A00434D93
:101E7000500A005265616479003A004D433A2025CA
:101E8000732C20504C3A2025730A0041434B3A549E
:101E9000657374004563686F0041434B3A443100F9
:101EA00041434B3A44320041434B3A535200414381
:101EB0004B3A53410042550041434B3A42553A2573
:101EC000730A0041434B3A42520053420041434B94
:101ED0003A43430041434B3A54500041434B3A3359
:101EE000560041434B3A4F4E005573657220426194
:101EF000636B75700041434B3A44420041434B3A97
:101F0000444C0041434B3A57520041434B3A5744EB
:011F100000D0
:041F11000101B40412
:00000001FF
