:1000000019C028C027C08FC0AAC024C023C022C0E6
:1000100021C020C01FC01EC01DC01CC01BC01AC0F4
:1000200019C018C017C016C015C014C013C012C024
:1000300011C010C011241FBECFEFCDBFDFE3DEBF64
:100040002EE3A0E0BEE301C01D92A330B207E1F7AA
:10005000DCD0E8C1A3C01092023E1092013E089588
:10006000E0E0F4E080E88683818380E4818380E1BE
:10007000858381838CE0828382898860828B8389F7
:100080008860838BE0E2F4E083E1818380E2828315
:10009000E0E4F4E08FE0818315820895E0E0F4E08D
:1000A00082898360828B83898360838B089580E15A
:1000B00080932604089580E180932704089581E0C9
:1000C000809327040895E0E0F4E080E8858392E4DB
:1000D0009A95F1F700C0868382E48A95F1F700C013
:1000E0000895E0E4F4E09481907F948394818F708C
:1000F000982B9483089580E480930504089580E408
:10010000809306040895E0E2F4E084E0858381832F
:10011000089584E0809326040895E0E2F4E0858960
:100120008960858B08951F920F920FB60F9211244C
:100130008F93EF93FF938091090482FF08C081E0C1
:100140008093023EE9E0F4E0808184708083FF9137
:10015000EF918F910F900FBE0F901F9018951F92E7
:100160000F920FB60F9211248F93EF93FF9381E0BC
:10017000809327048091290485FF08C081E0809343
:10018000013EE9E2F4E0808180728083FF91EF918B
:100190008F910F900FBE0F901F9018951F920F9286
:1001A0000FB60F9211242F938F939F93AF93BF930A
:1001B000EF93FF9384E190E0E0E2F4E020E1258317
:1001C000AFE4B3EC1197F1F700C000002683AFE471
:1001D000B3EC1197F1F700C00000019781F7FF9190
:1001E000EF91BF91AF919F918F912F910F900FBE83
:1001F0000F901F90189591DF08958091013E8823FC
:1002000019F05DDF1092013E089525DF29DFF3DF4D
:1002100045DFD5D01FD0789488E294E8C1D085E33B
:1002200094E8DFD0EADF8091003E811101C071DFE8
:100230008091023E882319F03ADF1092023E2FEFA0
:1002400080E792E0215080409040E1F700C000003C
:1002500032DFE8CF2FE78AE196E0215080409040DE
:10026000E1F700C000004BDF83E03BDF81E02BDFE4
:1002700087E893E10197F1F700C0000083E031DFE8
:1002800081E021DF87E893E10197F1F700C00000EA
:1002900083E027DF81E017DF87E893E10197F1F73B
:1002A00000C0000082E01DDF81E00DDF87E893E100
:1002B0000197F1F700C0000082E013DF81E003DF67
:1002C00087E893E10197F1F700C0000088E009DFBB
:1002D00081E0F9DE87E893E10197F1F700C00000C3
:1002E00080E0FFDE81E0EFDE87E893E10197F1F740
:1002F00000C000008CE0F5DE81E0E5DE87E893E1F8
:100300000197F1F700C0000080E0EBDE81E0DBDE6A
:1003100087E893E10197F1F700C0000086E0E1DE95
:1003200081E0D1DE87E893E10197F1F700C000009A
:1003300080E0D7DE81E0C7DE87E893E10197F1F73F
:1003400000C0000086E0CDDE81E0BDDE87E893E1FD
:100350000197F1F700C0000080E0C3DE81E0B3DE6A
:1003600087E893E10197F1F700C0000081E0B9DE72
:1003700081E0A9DE87E893E10197F1F700C0000072
:100380000895CF93C82FB7DE8C2F82958F70A9DE8A
:1003900081E099DE8C2FA5DE81E095DECF91089576
:1003A000CF93DF93EC01A7DE8881882329F0219683
:1003B000E8DF89918111FCCFDF91CF910895A3DE11
:1003C000E0E0F8E08CE695E08087918780EC86831A
:1003D0000895E0E0F8E0948195FFFDCF8093020856
:1003E0000895EF92FF920F931F93CF93DF938C01A9
:1003F0007C01C0E0D0E005C0F70181917F01E9DF19
:100400002196F80101900020E9F73197E01BF10BEC
:10041000CE17DF0788F3DF91CF911F910F91FF90E7
:08042000EF900895F894FFCF5E
:1004280048616C6C6F2057656C74210A00493A5317
:0704380054415254454400F9
:00000001FF
