:1000000019C028C027C075C125C024C023C022C084
:1000100021C020C01FC01EC01DC01CC01BC01AC0F4
:1000200019C018C017C016C015C014C013C012C024
:1000300011C010C011241FBECFEFCDBFDFE3DEBF64
:100040002EE3A0E0BEE301C01D92A130B207E1F7AC
:1000500060D09EC1D5CFE0E0F4E080E88683818364
:1000600080E4818380E1858381838CE0828382893F
:100070008860828B83898860838BE0E2F4E083E18F
:10008000818380E28283E0E4F4E08FE08183158263
:1000900008958091080486958695869591E0892734
:1000A000817090E0089580E180932504089580E1B7
:1000B000809326040895E0E0F4E080E8858392E4EC
:1000C0009A95F1F700C0868382E48A95F1F700C023
:1000D0000895E0E4F4E09481907F948394818F709C
:1000E000982B9483089580E480930504089580E418
:1000F000809306040895E0E2F4E084E08583818340
:100100000895E0E2F4E085898160858B0895F9DF48
:100110000895A1DFFCDF20D008D136D0789484E99F
:1001200093E8D8D0C0E2D4E0888585FF02C0BBDF69
:1001300001C0BDDF8091003E8111B9DFAADF0197C8
:1001400039F481E090E011D081EA93E800D1ECCF5E
:1001500080E090E00AD0E8CFE0E0F4E082898360BC
:10016000828B83898360838B08951816190634F473
:10017000E0E2F4E08481816084830895E0E2F4E0C9
:1001800084818E7F848308952FE78AE196E0215051
:1001900080409040E1F700C00000A9DF83E099DFD4
:1001A00081E089DF87E893E10197F1F700C0000063
:1001B00083E08FDF81E07FDF87E893E10197F1F74C
:1001C00000C0000083E085DF81E075DF87E893E110
:1001D0000197F1F700C0000082E07BDF81E06BDF78
:1001E00087E893E10197F1F700C0000082E071DF3A
:1001F00081E061DF87E893E10197F1F700C000003B
:1002000088E067DF81E057DF87E893E10197F1F746
:1002100000C0000080E05DDF81E04DDF87E893E112
:100220000197F1F700C000008CE053DF81E043DF6D
:1002300087E893E10197F1F700C0000080E049DF13
:1002400081E039DF87E893E10197F1F700C0000012
:1002500086E03FDF81E02FDF87E893E10197F1F748
:1002600000C0000080E035DF81E025DF87E893E112
:100270000197F1F700C0000086E02BDF81E01BDF73
:1002800087E893E10197F1F700C0000080E021DFEB
:1002900081E011DF87E893E10197F1F700C00000EA
:1002A00081E017DF81E007DF87E893E10197F1F74D
:1002B00000C000000895CF93C82F15DF8C2F8295C2
:1002C0008F7007DF81E0F7DE8C2F03DF81E0F3DE44
:1002D000CF910895CF93DF93EC0105DF88818823C8
:1002E00029F02196E8DF89918111FCCFDF91CF9130
:1002F00008951F920F920FB60F9211248F93EF93D0
:10030000FF938091090482FF08C081E08093003E42
:10031000E9E0F4E0808184708083FF91EF918F9118
:100320000F900FBE0F901F901895E5DEE0E0F8E00B
:100330008CE695E08087918780EC86830895E0E0E5
:10034000F8E0948195FFFDCF809302080895EF9225
:10035000FF920F931F93CF93DF938C017C01C0E03A
:10036000D0E005C0F70181917F01E9DF2196F80116
:1003700001900020E9F73197E01BF10BCE17DF0762
:1003800088F3DF91CF911F910F91FF90EF90089527
:04039000F894FFCF0F
:1003940048616C6C6F2057656C74210A00433A48BD
:0703A400656C6C6F0D0A008F
:00000001FF
