:1000000019C033C032C024C14BC12FC085C52DC01B
:100010002CC02BC0B8C129C028C027C026C025C00D
:1000200024C023C022C021C020C01FC03EC71DC0A5
:100030001CC01BC011241FBECFEFCDBFDFE3DEBF4E
:100040001EE3A0E0BEE3E7E3FAE102C005900D92F3
:10005000A430B107D9F72EE3A4E0BEE301C01D929E
:10006000AC3BB207E1F712D2CECB36C1E0E0F6E00E
:10007000808180830895E0E0F6E080818160808364
:100080000895F4DF80E38093A000F5DF0895E0E0B9
:10009000F6E0838580FFFDCF08951F93CF93DF9314
:1000A000C0E0D6E011E01887F2DF1B87DF91CF9127
:1000B0001F910895CF93DF93C0E0D6E085E08E8353
:1000C000ECDF88899989DF91CF910895CF93DF93F1
:1000D000C0E0D6E081E08E83E0DF88899989DF91F6
:1000E000CF910895CF93DF93C0E0D6E08EE18E8369
:1000F000D4DF88899989DF91CF910895DBDF21E0F2
:100100008538934008F420E0822F08951092193E1C
:100110001092183E0895E0E0F4E08189887F818B99
:1001200081898460818B8589887F858B85898460BE
:10013000858B0895E0E0F4E080E88683818380E4A5
:10014000818380E1858381838CE0828382898860DA
:10015000828B83898860838BE0E2F4E083E1818392
:1001600080E28283A0E4B4E08FE011968C93119733
:1001700015961C9281E08183CEDF0895809108045A
:1001800086958695869591E08927817090E00895FF
:10019000E0E0F4E082898360828B83898360838BD3
:1001A000089580911A3E882319F080E180932504F8
:1001B000089580E180932604089580911A3E882353
:1001C00021F080E180932704089580E18093260444
:1001D00008951816190644F480911A3E882321F0D8
:1001E00081E080932504089581E08093260408959A
:1001F000E0E0F4E080E8858392E49A95F1F700C0AE
:10020000868382E48A95F1F700C00895E0E4F4E083
:100210009481907F948394818F70982B9483089518
:1002200080E480930504089580E480930604089593
:10023000E0E2F4E084E085838183089584E08093A4
:1002400026040895E0E2F4E085898960858B0895AD
:100250001F920F920FB60F9211248F93EF93FF937B
:100260008091090482FF08C081E08093193EE9E093
:10027000F4E08081847080838091090483FF08C04A
:1002800081E08093133EE9E0F4E080818870808310
:10029000FF91EF918F910F900FBE0F901F901895C7
:1002A0001F920F920FB60F9211248F93EF93FF932B
:1002B0008091290485FF08C081E08093183EE9E21F
:1002C000F4E0808180728083FF91EF918F910F9095
:1002D0000FBE0F901F9018951F920F920FB60F929E
:1002E0001124EF92FF921F932F933F934F935F93AD
:1002F0006F937F938F939F93AF93BF93CF93DF932E
:10030000EF93FF93C4E1D0E06894EE24E5F8FF2476
:10031000F2F810E146DF8FE493EC0197F1F700C0AB
:100320000000F70116838FE493EC0197F1F700C00A
:100330000000219779F7FF91EF91DF91CF91BF9165
:10034000AF919F918F917F916F915F914F913F916D
:100350002F911F91FF90EF900F900FBE0F901F9065
:100360001895E0E0FAE08BE29AE086A397A381E09B
:100370008287089567DFF5DF08958091183E811127
:100380001092183E08951F920F920FB60F921124EB
:100390001092123E0F900FBE0F901F9018959091E3
:1003A000193E8091133E811102C0992341F01092B1
:1003B000193E1092133E81E08093513E1CD32FEFE3
:1003C00080E792E0215080409040E1F700C00000BB
:1003D0000895CF938091063E8823B9F01092063E8F
:1003E00084E494E08093023E9093033E8AE994E093
:1003F0008093163E9093173E85E594E08093143EDB
:100400009093153E81E090E0E4DEE091023EF091B1
:10041000033E09952FEF80E792E021508040904005
:10042000E1F700C00000C091193EA8DE21E0892B51
:1004300009F020E0C217B8F38091193E882339F003
:100440001092193EE091163EF091173E099596DE06
:10045000892B39F01092133EE091143EF091153E35
:100460000995CF91089552DE65DE84DF91DE8AD34F
:1004700021D107DE81E1ECE0F8E9ABE1BEE30190D8
:100480000D928A95E1F7E9D178940895ECDF8DE13A
:1004900098E9C0D181E398E988D381E090E099DEC2
:1004A00082E080931A3ECBE7D2E00F2EF9EECF2EFA
:1004B000F1E0DF2EF02D0F2EFFECEF2EF1E0FF2EFE
:1004C000F02D8E0180911A3E813039F020F082307B
:1004D00029F4E80103C0E70101C0E601FE01099526
:1004E000F1CFE0E5F0E080818260808380818160EF
:1004F00080838895089581E090E06BDE3EDF8091F7
:10050000123E811101C09ADE8091193E882319F0B4
:100510001092193E4EDE8091133E882329F01092EE
:10052000133E8BE398E941D38091113E882319F063
:10053000C8D31092113E8091103E882359F010923A
:10054000103E7BD182E59EE365D15AD18CE39EE3D8
:1005500061D152D380910F3E882349F06ED185E45A
:1005600098E958D110920F3E8091513E44D280912B
:100570000E3E882339F061D18BE19EE34BD110927E
:100580000E3E3AD380910D3E882311F18091503E6A
:100590008F9380914F3E8F9380914E3E8F938091A9
:1005A0004D3E8F9382E698E99F938F9383E89EE375
:1005B0009F938F930CD683E89EE318D310920D3E41
:1005C0006FD262D219D38DB79EB708968DBF9EBFEA
:1005D00080910C3E882379F010920C3E8FE798E9C9
:1005E00005D39FEF20E782E0915020408040E1F763
:1005F00000C0000076DF80910B3E8823C1F010928E
:100600000B3E64DD9F938F9383E998E99F938F93CB
:1006100083E89EE39F938F93DAD583E89EE3E6D247
:10062000EBD20F900F900F900F900F900F90809142
:100630000A3E8823C1F010920A3E54DD9F938F93A7
:1006400089E998E99F938F9383E89EE39F938F9323
:10065000BED583E89EE3CAD2CFD20F900F900F9001
:100660000F900F900F908091093E8823C1F0109257
:10067000093E20DD9F938F938FE998E99F938F9395
:1006800083E89EE39F938F93A2D583E89EE3AED247
:10069000B3D20F900F900F900F900F900F909FEF8D
:1006A00020E782E0915020408040E1F700C0000048
:1006B00084DD08952FE78AE196E021508040904044
:1006C000E1F700C00000B0DD83E0A0DD81E090DD57
:1006D00087E893E10197F1F700C0000083E096DD21
:1006E00081E086DD87E893E10197F1F700C0000023
:1006F00083E08CDD81E07CDD87E893E10197F1F711
:1007000000C0000082E082DD81E072DD87E893E1D5
:100710000197F1F700C0000082E078DD81E068DD3C
:1007200087E893E10197F1F700C0000088E06EDDF3
:1007300081E05EDD87E893E10197F1F700C00000FA
:1007400080E064DD81E054DD87E893E10197F1F713
:1007500000C000008CE05ADD81E04ADD87E893E1CB
:100760000197F1F700C0000080E050DD81E040DD3E
:1007700087E893E10197F1F700C0000086E046DDCD
:1007800081E036DD87E893E10197F1F700C00000D2
:1007900080E03CDD81E02CDD87E893E10197F1F713
:1007A00000C0000086E032DD81E022DD87E893E1D1
:1007B0000197F1F700C0000080E028DD81E018DD3E
:1007C00087E893E10197F1F700C0000081E01EDDAA
:1007D00081E00EDD87E893E10197F1F700C00000AA
:1007E0000895CF93C82F1CDD8C2F82958F700EDD5E
:1007F00081E0FEDC8C2F0ADD81E0FADCCF910895E8
:1008000013DD8CE003DD81E0F3DC80E0FFDC81E0E0
:10081000EFDC0895CF93DF93EC0102DD888188231C
:1008200049F021968A3011F4EBDF01C0DADF8991BB
:100830008111F8CFDF91CF910895F6DC80E0E6DCFE
:1008400081E0D6DC81E0E2DC81E0D2DC87EA91E67F
:100850000197F1F700C000000895E0E0FAE0808120
:100860008460808380EA91E086AB97AB81858E7F40
:100870008187818183608183089584E494E08093FB
:10088000023E9093033E0895D8DF85EA98E9C2DFDF
:100890008AE994E08093163E9093173E85E594E0B4
:1008A0008093143E9093153E089585E594E08093DF
:1008B000023E9093033EC1DF87EC98E9ABDF8CE604
:1008C00094E08093163E9093173E83E894E08093E3
:1008D000143E9093153E08958CE694E08093023E7A
:1008E0009093033EAADF89EE98E994DF83EB94E0CE
:1008F0008093163E9093173E8DE394E08093143ED0
:100900009093153E08958CE694E08093023E909378
:10091000033E93DF89EE98E97DDF8FEB94E08093CF
:10092000163E9093173E8DE394E08093143E90938F
:10093000153E08958AE994E08093023E9093033E29
:100940007CDF84E498E966DF5BDF8BE19EE362DFB6
:100950008DE394E08093163E9093173E8093143E6F
:100960009093153E089569DF8BE099E953DF81E0AC
:100970008093073E82E08093513E3DD008955DDF35
:100980008BE099E947DF82E08093513E34D00895AF
:10099000E0E0F4E084818061848381E08093013E23
:1009A0000895E0E0F4E084818F7E84831092013E1C
:1009B0000895E0E2F4E084818D7F848381E0809378
:1009C000003E0895E0E2F4E0848182608483109226
:1009D000003E089532DF8BE299E91CDF8091123EE0
:1009E0008111FECF2ADF86E499E914DF87DB8111CC
:1009F000FDCF81E00895CF93813089F018F08230E7
:100A0000F9F035C0E7DFDEDF80E090E0E2DBD1DB4C
:100A1000C8DF81E080930C3E10921A3E28C0C1E0EE
:100A2000C0931A3EB5DBB4DF86E490E10197F1F79D
:100A300000C040DEC093063E8091083E8823B9F096
:100A400080E1E0E6F9E9A2E5BEE301900D928A9526
:100A5000E1F780E1E0E7F9E9ACE3BEE301900D9254
:100A60008A95E1F795DFA5DF82E080931A3ECF916A
:100A70000895E0E4F1E0108611860895E0E4F1E0E5
:100A800081818111FDCF08951092083EF7DFE0E4E7
:100A9000F1E081ED808382E0828381E087830895A5
:100AA000CF92DF92EF92FF92C0904D3ED0904E3E9B
:100AB000E0904F3EF090503EFF202CF48FE1C80EA6
:100AC000D11CE11CF11C689414F8F594E794D794B8
:100AD000C7941694D1F7FF92EF92DF92CF9280E8FD
:100AE00099E99F938F9383E89EE39F938F936FD3AE
:100AF00083E89EE37BD0BDDF8C2D9D2D80934C0140
:100B000090934D018DB79EB708968DBF9EBFFF9005
:100B1000EF90DF90CF9008951F920F920FB60F9233
:100B200011242F933F934F935F936F937F938F93F2
:100B30009F93AF93BF93EF93FF93E0E4F1E0838142
:100B4000826083838DE999E930D081E08093083E0B
:100B50008093513E50DFFF91EF91BF91AF919F91F4
:100B60008F917F916F915F914F913F912F910F9056
:100B70000FBE0F901F901895E0E0F8E08581806827
:100B80008583089555DBE0E0F8E08CE695E080870A
:100B9000918780EC8683F0DF0895E0E0F8E09481AF
:100BA00095FFFDCF809302080895EF92FF920F9377
:100BB0001F93CF93DF938C017C01C0E0D0E005C090
:100BC000F70181917F01E9DF2196F8010190002072
:100BD000E9F73197E01BF10BCE17DF0788F3DF91C0
:100BE000CF911F910F91FF90EF900895DEDF8AE083
:100BF000D4DF80E0D2DF089582EA99E9F7DF089533
:100C0000E0E0F8E084818823ECF780910008089503
:100C1000CF92DF92EF92FF920F931F93CF93DF93C8
:100C20007C016B016132710524F06894CC24C5F815
:100C3000D12CDD20C4F0E70100E010E07E010F5F61
:100C40001F4FDEDF89938A3021F0882311F08D3029
:100C500031F4F7011082C016D1063CF404C07E01C5
:100C6000C016D1065CF7F7011082DF91CF911F917A
:100C70000F91FF90EF90DF90CF9008950F931F9307
:100C8000CF93DF9300D0CDB7DEB7082F192F9F93F6
:100C90008F9388EA99E99F938F9386D24AE050E038
:100CA000BE016F5F7F4F802F912F29D10F900F9042
:100CB0000F900F900F900F90DF91CF911F910F9198
:100CC00008950F931F93CF93DF9367EB79E983E642
:100CD0009EE333D2892B19F48CEB99E987DF61EC21
:100CE00079E983E69EE325D2D82FC92F6AE078E917
:100CF00080E090E01ED2082F192F9F938F93CF93FF
:100D0000DF9383EC99E99F938F9383E89EE39F930E
:100D10008F935DD267ED79E98D2F9C2F0ED22DB781
:100D20003EB7285F3F4F2DBF3EBF892B41F483ED77
:100D300099E95CDF602F712F82E59EE307D26EEDAB
:100D400079E98D2F9C2FF9D1892B59F48AED99E9F6
:100D50004DDF602F712F8CE39EE3F8D181E080930B
:100D6000103E61EE79E98D2F9C2FE7D1892B29F474
:100D700081E080930F3E1092513E64EE79E98D2F11
:100D80009C2FDBD1892B11F51F930F9387EE99E9E7
:100D90009F938F9383E89EE39F938F9318D283E86A
:100DA0009EE324DF802F912F69DF60934D3E709387
:100DB0004E3E80934F3E9093503E81E080930D3E97
:100DC0000F900F900F900F900F900F9062EF79E9B6
:100DD0008D2F9C2FB2D1892B59F4602F712F8BE16D
:100DE0009EE3B4D18AE080932B3E81E080930E3E57
:100DF00065EF79E98D2F9C2FA0D1892B19F481E023
:100E000080930C3E6CEF79E98D2F9C2F96D1892B26
:100E100031F488EF99E9EADE81E080930B3E63E0EC
:100E20007AE98D2F9C2F89D1892B31F48FEF99E9A5
:100E3000DDDE81E080930A3E6AE07AE98D2F9C2F07
:100E40007CD1892B31F486E09AE9D0DE81E0809371
:100E5000093E6DE07AE98D2F9C2F6FD1892B61F4CB
:100E600080E19AE9C3DE8091073E882329F0109241
:100E7000073E88E19AE9BADE65E27AE98D2F9C2F78
:100E80005CD1892B19F488E29AE9B0DE64E37AE94F
:100E90008D2F9C2F52D1892B19F480E39AE9A6DE7D
:100EA000DF91CF911F910F9108951F920F920FB66E
:100EB0000F9211242F933F934F935F936F937F93E0
:100EC0008F939F93AF93BF93EF93FF9360E270E094
:100ED00083E69EE39DDE81E08093113EFF91EF91DA
:100EE000BF91AF919F918F917F916F915F914F9142
:100EF0003F912F910F900FBE0F901F901895A0E07B
:100F0000B0E0E4E8F7E043C45C016B017A016115ED
:100F1000710519F0FB0180839183E114F10429F03C
:100F2000C7010297839708F0E2C0E5012196F50119
:100F30001081812F90E0F4D0892B11F05E01F5CF64
:100F40001D3229F42196F501118101E007C01B3201
:100F500021F4E5012296F501118100E0E114F1048C
:100F600009F1F0E1EF16F10429F43EC010E3E114B9
:100F7000F10421F128E0E216F10401F154F4E2E079
:100F8000EE16F10421F5812C912CA12CB0E4BB2E9E
:100F90003DC0FAE0EF16F10439F020E1E216F10469
:100FA000B1F42FC0103311F1FAE0EF2EF12CACECBC
:100FB0008A2E982CA82CACE0BA2E28C078E0E72E18
:100FC000F12C812C912CA12CE0E1BE2E1FC060E001
:100FD00070E080E090E897010F2C000C440B550B5B
:100FE000A9D349015A0112C0103359F488818F7D69
:100FF000883509F0BBCF19812296026080E1E82E86
:10100000F12C812C912CA12C68E0B62E40E060E000
:1010100070E0CB0127010F2C000C66087708FE0159
:1010200050ED352E310E29E0231570F42FEB210FF2
:101030002A3118F439EC332E06C02FE9210F2A315A
:1010400010F529EA322E310E232D30E02E153F0502
:10105000D4F447FD15C086169706A806B90668F0B1
:10106000A301920158D3630D711D811D911D613043
:101070007105810520E8920710F04FEF01C041E0B3
:1010800021961081CCCF202F2170C114D10471F092
:10109000442329F02197F601C083D18307C001FFC3
:1010A00019C02297F601C083D18314C047FF12C034
:1010B000222329F060E070E080E090E804C06FEF48
:1010C0007FEF8FEF9FE722E230E02093B43E309332
:1010D000B53E09C0222381F0909580957095619569
:1010E0007F4F8F4F9F4F462F372F282F12C040E042
:1010F00030E020E090E00DC097FFF5CF82E290E075
:101100008093B43E9093B53E6FEF7FEF8FEF9FE7F4
:10111000EACF642F732F822FCDB7DEB7E1E150C342
:1011200091110C94D80A803219F089508550C8F773
:10113000089544E05EE311D00895FB01DC018D9138
:10114000019080190110D9F3990B0895FB01DC017E
:1011500001900D920020E1F70895FA01A191B0816C
:10116000009719F41097E1F0CD01DC01CD010D904D
:10117000002011F4C00113C0FB012191222319F0BA
:101180002015D9F7F3CFFB012191201519F41E92F8
:10119000119606C02223C1F70D900020A1F7D001BF
:1011A000FA01A193B0830895A0E0B0E0E9EDF8E082
:1011B000FDC2AE014B5F5F4FFA0161917191AF01CA
:1011C0008091B83E9091B93E21D0E2E008C3AEE0F4
:1011D000B0E0ECEEF8E0E8C20D891E8986E08C8371
:1011E00009831A838FEF9FE78D839E83AE01475E4D
:1011F0005F4F6F89788DCE01019608D0EF81F88519
:10120000E00FF11F10822E96E4E0E7C2ABE0B0E001
:10121000EBE0F9E0BBC26C017B018A01FC011682A4
:101220001782838181FFBFC1CE0101963C01F60187
:101230009381F70193FD859193FF81917F0188232D
:1012400009F4ADC1853239F493FD859193FF819105
:101250007F01853221F4B60190E0C3D1E8CF912C13
:10126000212C312CFFE1F315D8F08B3279F038F4D2
:10127000803279F08332A1F4232D20611DC08D329C
:1012800061F0803369F4232D216016C0832D8260C4
:10129000382EE32DE4603E2E2AC0F32DF8601DC0E9
:1012A00037FC2DC020ED280F2A3040F08E32B9F4E3
:1012B00036FC75C1232D2064322E19C036FE06C0BF
:1012C0008AE0989E200D1124922E11C0EAE02E9EF5
:1012D000200D1124222EF32DF0623F2E08C08C36F3
:1012E00021F4832D8068382E02C0883641F4F7013E
:1012F00093FD859193FF81917F018111B3CF982F49
:101300009F7D9554933028F40C5F1F4F9FE3998382
:101310000DC0833631F0833771F0833509F055C045
:1013200020C0F801808189830E5F1F4F8824839439
:10133000912C530112C02801F2E04F0E511CF8010C
:10134000A080B18036FE03C0692D70E002C06FEF4F
:101350007FEFC5013BD14C018201F32DFF773F2E7A
:1013600015C0280122E0420E511CF801A080B18076
:1013700036FE03C0692D70E002C06FEF7FEFC5013C
:101380001AD14C01F32DF0683F2E820133FC19C0B5
:10139000822D90E088169906A0F4B60180E290E0D4
:1013A00020D12A94F5CFF50137FC859137FE819144
:1013B0005F01B60190E015D121102A9421E0821A34
:1013C00091088114910479F7E1C0843611F08936CF
:1013D00039F5F80137FE07C0608171818281938100
:1013E0000C5F1F4F08C060817181072E000C880BB5
:1013F000990B0E5F1F4FF32DFF763F2E97FF09C00D
:1014000090958095709561957F4F8F4F9F4FF068B5
:101410003F2E2AE030E0A30120D1882E861844C058
:10142000853731F4232D2F7EB22E2AE030E025C0FF
:10143000932D997FB92E8F36C1F018F4883579F045
:10144000AEC0803719F0883721F0A9C0E92FE061DC
:10145000BE2EB4FE0DC0FB2DF460BF2E09C034FEBD
:101460000AC0292F2660B22E06C028E030E005C051
:1014700020E130E002C020E132E0F801B7FE07C011
:1014800060817181828193810C5F1F4F06C06081F2
:10149000718180E090E00E5F1F4FA301DED0882EA7
:1014A0008618FB2DFF773F2E36FE0DC0232D2E7F95
:1014B000A22E891458F434FE0BC032FC09C0832DCF
:1014C0008E7EA82E05C0B82CA32C03C0B82C01C05A
:1014D000B92CA4FE0FC0FE01E80DF11D8081803300
:1014E00021F49A2D997EA92E09C0A2FE06C0B394BC
:1014F000B39404C08A2D867809F0B394A3FC10C07D
:10150000A0FE06C0B21480F4280C922C9B180DC0CB
:10151000B21458F4B60180E290E063D0B394F8CFEF
:10152000B21418F42B1802C0982C212CA4FE0FC062
:10153000B60180E390E055D0A2FE16C0A1FC03C026
:1015400088E790E002C088E590E0B6010CC08A2DE3
:10155000867851F0A1FE02C08BE201C080E2A7FCB8
:101560008DE2B60190E03DD0891430F4B60180E3FD
:1015700090E037D09A94F8CF8A94F301E80DF11DEA
:101580008081B60190E02DD08110F6CF222009F4A1
:101590004ECEB60180E290E024D02A94F7CFF60137
:1015A0008681978102C08FEF9FEF2B96E2E107C102
:1015B000992788270895FC0105906150704001101B
:1015C000D8F7809590958E0F9F1F0895FC0161506C
:1015D000704001900110D8F7809590958E0F9F1F55
:1015E00008950F931F93CF93DF93FB01238121FD78
:1015F00003C08FEF9FEF2CC022FF16C0468157819A
:10160000248135814217530744F4A081B1819D01A3
:101610002F5F3F4F208331838C93268137812F5F4B
:101620003F4F2683378314C08B01EC01FB010084FC
:10163000F185E02D0995892BE1F6D80116968D915B
:101640009C911797019616968D939C931797CE01B0
:10165000DF91CF911F910F910895FA01AA272830A9
:1016600051F1203181F1E8946F936E7F6E5F7F4F6F
:101670008F4F9F4FAF4FB1E03ED0B4E03CD0670FEB
:10168000781F891F9A1FA11D680F791F8A1F911D3E
:10169000A11D6A0F711D811D911DA11D20D009F48E
:1016A00068943F912AE0269F11243019305D3193D0
:1016B000DEF6CF010895462F4770405D4193B3E0B9
:1016C0000FD0C9F7F6CF462F4F70405D4A3318F060
:1016D000495D31FD4052419302D0A9F7EACFB4E011
:1016E000A6959795879577956795BA95C9F70097C9
:1016F0006105710508959B01AC010A2E069457956A
:10170000479537952795BA95C9F7620F731F841FC0
:10171000951FA01D0895DB018F939F932DD0BF913E
:10172000AF91A29F800D911DA39F900DB29F900D30
:1017300011240895A1E21A2EAA1BBB1BFD010DC0A6
:10174000AA1FBB1FEE1FFF1FA217B307E407F50771
:1017500020F0A21BB30BE40BF50B661F771F881F4D
:10176000991F1A9469F760957095809590959B01E3
:10177000AC01BD01CF0108953AD0A59F900DB49F53
:10178000900DA49F800D911D112408952F923F92DA
:101790004F925F926F927F928F929F92AF92BF9281
:1017A000CF92DF92EF92FF920F931F93CF93DF932D
:1017B000CDB7DEB7CA1BDB0BCDBFDEBF09942A88CD
:1017C000398848885F846E847D848C849B84AA8455
:1017D000B984C884DF80EE80FD800C811B81AA81E2
:1017E000B981CE0FD11DCDBFDEBFED010895A29FFF
:1017F000B001B39FC001A39F01D0B29F700D811DA6
:0A1800001124911D0895F894FFCF04
:10180A00000030392E30312E313939302031323A18
:10181A003537005374616E64627920556E69740AB3
:10182A0072656164792100493A53544152544544DE
:10183A0000433A48656C6C6F0D0A0052656365692E
:10184A0076656420536875742D0A646F776E20522A
:10185A00657175657374210057696C6C2077616BCB
:10186A006520757020696E20256C64207365636F2E
:10187A006E64730A00676F696E6720746F20736CF9
:10188A00656570202E2E2E0A0043433A25640054C3
:10189A00503A25640033563A25640053686F77201E
:1018AA006E6578742042552020203E0A416374698F
:1018BA006F6E7320202020202020203E00446F20BD
:1018CA004261636B7570204E6F7720203E0A576124
:1018DA006B6520666F7220636F6E6669673E0053A0
:1018EA007572653F202020202020596573203E0A0A
:1018FA002020202020202020202020204E6F203E43
:10190A000057616B696E672042435520616E640A15
:10191A00646F204261636B7570206E6F77202E2E84
:10192A000057616974696E6720666F722042435579
:10193A000A484220746F2073746F7000576169748B
:10194A00696E6720666F72203356330A746F206798
:10195A006F206C6F7700424355207374617274690B
:10196A006E6720757000506C6561736520776169D8
:10197A0074202E2E2E0057726974696E6720256CAA
:10198A006420746F20434D502052656769737465F3
:10199A00720A00434D500A00526561647900506131
:1019AA007273696E6720272573273A0A0054657394
:1019BA0074004563686F003A004D433A2025732C42
:1019CA0020504C3A2025730A0041434B3A443100D7
:1019DA0041434B3A44320053520042550041434B73
:1019EA003A42553A25730A00425200534200414393
:1019FA004B3A43430041434B3A54500041434B3A1C
:101A0A003356004F4E0041434B3A4F4E0A0055732E
:101A1A006572204261636B75700A0044420041435B
:0D1A2A004B3A44420A0041434B3A444C0001
:041A37000101440461
:00000001FF
