:1000000019C033C032C024C14BC12FC05CC52DC044
:100010002CC02BC0B8C129C028C027C026C025C00D
:1000200024C023C022C021C020C01FC0E7C61DC0FD
:100030001CC01BC011241FBECFEFCDBFDFE3DEBF4E
:100040001EE3A0E0BEE3E0E7F9E102C005900D92F7
:10005000A430B107D9F72EE3A4E0BEE301C01D929E
:10006000AB3BB207E1F728D277CB36C1E0E0F6E050
:10007000808180830895E0E0F6E080818160808364
:100080000895F4DF80E38093A000F5DF0895E0E0B9
:10009000F6E0838580FFFDCF08951F93CF93DF9314
:1000A000C0E0D6E011E01887F2DF1B87DF91CF9127
:1000B0001F910895CF93DF93C0E0D6E085E08E8353
:1000C000ECDF88899989DF91CF910895CF93DF93F1
:1000D000C0E0D6E081E08E83E0DF88899989DF91F6
:1000E000CF910895CF93DF93C0E0D6E08EE18E8369
:1000F000D4DF88899989DF91CF910895DBDF21E0F2
:100100008538934008F420E0822F08951092183E1D
:100110001092173E0895E0E0F4E08189887F818B9A
:1001200081898460818B8589887F858B85898460BE
:10013000858B0895E0E0F4E080E88683818380E4A5
:10014000818380E1858381838CE0828382898860DA
:10015000828B83898860838BE0E2F4E083E1818392
:1001600080E28283A0E4B4E08FE011968C93119733
:1001700015961C9281E08183CEDF0895809108045A
:1001800086958695869591E08927817090E00895FF
:10019000E0E0F4E082898360828B83898360838BD3
:1001A00008958091193E882319F080E180932504F9
:1001B000089580E18093260408958091193E882354
:1001C00021F080E180932704089580E18093260444
:1001D00008951816190644F48091193E882321F0D9
:1001E00081E080932504089581E08093260408959A
:1001F000E0E0F4E080E8858392E49A95F1F700C0AE
:10020000868382E48A95F1F700C00895E0E4F4E083
:100210009481907F948394818F70982B9483089518
:1002200080E480930504089580E480930604089593
:10023000E0E2F4E084E085838183089584E08093A4
:1002400026040895E0E2F4E085898960858B0895AD
:100250001F920F920FB60F9211248F93EF93FF937B
:100260008091090482FF08C081E08093183EE9E094
:10027000F4E08081847080838091090483FF08C04A
:1002800081E08093123EE9E0F4E080818870808311
:10029000FF91EF918F910F900FBE0F901F901895C7
:1002A0001F920F920FB60F9211248F93EF93FF932B
:1002B0008091290485FF08C081E08093173EE9E220
:1002C000F4E0808180728083FF91EF918F910F9095
:1002D0000FBE0F901F9018951F920F920FB60F929E
:1002E0001124EF92FF921F932F933F934F935F93AD
:1002F0006F937F938F939F93AF93BF93CF93DF932E
:10030000EF93FF93C4E1D0E06894EE24E5F8FF2476
:10031000F2F810E146DF8FE493EC0197F1F700C0AB
:100320000000F70116838FE493EC0197F1F700C00A
:100330000000219779F7FF91EF91DF91CF91BF9165
:10034000AF919F918F917F916F915F914F913F916D
:100350002F911F91FF90EF900F900FBE0F901F9065
:100360001895E0E0FAE08BE29AE086A397A381E09B
:100370008287089567DFF5DF08958091173E811128
:100380001092173E08951F920F920FB60F921124EC
:100390001092113E0F900FBE0F901F9018959091E4
:1003A000183E8091123E811102C0992341F01092B3
:1003B000183E1092123E81E08093503EF9D22FEF0A
:1003C00080E792E0215080409040E1F700C00000BB
:1003D00008958091063E8823B9F01092063E83E589
:1003E00094E08093023E9093033E8BE794E08093E9
:1003F000153E9093163E84E694E08093133E9093CE
:10040000143E81E090E0E5DEE091023EF091033E93
:1004100009958091183E9091123E1F929F931F92D2
:100420008F938EE597E99F938F9382E89EE39F9346
:100430008F9376D682E89EE38ED32FEF30E782E06B
:10044000215030408040E1F700C000009091123E02
:1004500081E098272DB73EB7285F3F4F2DBF3EBFA5
:100460008091183E8917E0F38091183E882339F077
:100470001092183EE091153EF091163E09957EDEF1
:10048000892B39F01092123EE091133EF091143E08
:10049000099508953BDE4EDE6DDF7ADE49D329D122
:1004A000F0DD81E2E4E7F7E9AAE1BEE301900D9215
:1004B0008A95E1F778940895EDDF85E997E9C9D148
:1004C00089EA97E948D381E090E083DE82E0809377
:1004D000193EC1E9D2E00F2EF9EECF2EF1E0DF2E6A
:1004E000F02D0F2EFFECEF2EF1E0FF2EF02D8E0100
:1004F0008091193E813039F020F0823029F4E801F2
:1005000003C0E70101C0E601FE010995F1CFE0E576
:10051000F0E0808182608083808181608083889523
:10052000089581E090E055DE28DF8091113E811131
:1005300001C084DE8091183E882319F01092183E85
:1005400038DE8091123E882329F01092123E83EB10
:1005500097E901D38091103E882319F082D310923D
:10056000103E80910F3E882369F010920F3E84D197
:1005700081E59EE36ED163D18BE39EE36AD18DEB7F
:1005800097E90AD380910E3E882349F075D18AEC11
:1005900097E95FD110920E3E8091503E09D2809132
:1005A0000D3E882331F068D18AE19EE352D110924A
:1005B0000D3E80910C3E882309F180914F3E8F9330
:1005C00080914E3E8F9380914D3E8F9380914C3E13
:1005D0008F9387EE97E99F938F9382E89EE39F9393
:1005E0008F939ED582E89EE3D7D210920C3E2FD2F5
:1005F00024D28DB79EB708968DBF9EBF80910B3ECB
:10060000882379F010920B3E84E098E9C5D29FEFE1
:1006100020E782E0915020408040E1F700C00000D8
:1006200076DF80910A3E8823D9F010920A3E4EDD93
:100630009F938F9388E198E99F938F9382E89EE33D
:100640009F938F936DD582E89EE3A6D215D182E861
:100650009EE3FFD00F900F900F900F900F900F9090
:100660008091093E8823D9F01092093E3BDD9F938B
:100670008F9380E298E99F938F9382E89EE39F9304
:100680008F934ED582E89EE387D2F6D082E89EE330
:10069000E0D00F900F900F900F900F900F908091DF
:1006A000083E8823D9F01092083E04DD9F938F9373
:1006B00088E298E99F938F9382E89EE39F938F93BC
:1006C0002FD582E89EE368D2D7D082E89EE3C1D0DE
:1006D0000F900F900F900F900F900F909FEF20E7CB
:1006E00082E0915020408040E1F700C0000065DDCD
:1006F00008952FE78AE196E0215080409040E1F78D
:1007000000C0000091DD83E081DD81E071DD87E8DC
:1007100093E10197F1F700C0000083E077DD81E00D
:1007200067DD87E893E10197F1F700C0000083E0FF
:100730006DDD81E05DDD87E893E10197F1F700C0B1
:10074000000082E063DD81E053DD87E893E10197FB
:10075000F1F700C0000082E059DD81E049DD87E863
:1007600093E10197F1F700C0000088E04FDD81E0E0
:100770003FDD87E893E10197F1F700C0000080E0DA
:1007800045DD81E035DD87E893E10197F1F700C0B1
:1007900000008CE03BDD81E02BDD87E893E10197F1
:1007A000F1F700C0000080E031DD81E021DD87E865
:1007B00093E10197F1F700C0000086E027DD81E0BA
:1007C00017DD87E893E10197F1F700C0000080E0B2
:1007D0001DDD81E00DDD87E893E10197F1F700C0B1
:1007E000000086E013DD81E003DD87E893E10197F7
:1007F000F1F700C0000080E009DD81E0F9DC87E866
:1008000093E10197F1F700C0000081E0FFDC81E097
:10081000EFDC87E893E10197F1F700C0000008954D
:10082000CF93C82FFDDC8C2F82958F70EFDC81E099
:10083000DFDC8C2FEBDC81E0DBDCCF910895F4DC96
:100840008CE0E4DC81E0D4DC80E0E0DC81E0D0DC42
:100850000895CF93DF93EC01E3DC8881882349F08E
:1008600021968A3011F4EBDF01C0DADF8991811122
:10087000F8CFDF91CF910895D7DC80E0C7DC81E02D
:10088000B7DC81E0C3DC81E0B3DC87EA91E6019765
:10089000F1F700C00000089583E594E08093023EE4
:1008A0009093033E0895E8DF80E398E9D2DF8BE779
:1008B00094E08093153E9093163E84E694E08093F6
:1008C000133E9093143E089584E694E08093023E94
:1008D0009093033ED1DF82E598E9BBDF80E994E0A5
:1008E0008093153E9093163E8CE994E08093133EDE
:1008F0009093143E08958BE794E08093023E90938A
:10090000033EBADF8AE19EE3A4DF8CE494E08093A7
:10091000153E9093163E8093133E9093143E089597
:10092000ABDF84E798E995DF81E08093073E82E0C2
:100930008093503E3DD008959FDF84E798E989DF9A
:1009400082E08093503E34D00895E0E0F4E084816A
:100950008061848381E08093013E0895E0E0F4E0CB
:1009600084818F7E84831092013E0895E0E2F4E05A
:1009700084818D7F848381E08093003E0895E0E24E
:10098000F4E08481826084831092003E089574DFD5
:1009900084E998E95EDF8091113E8111FECF6CDF22
:1009A0008FEA98E956DFAADB8111FDCF81E0089537
:1009B000CF93813089F018F08230E1F031C0E7DF69
:1009C000DEDF80E090E005DCF4DBC8DF81E08093CF
:1009D0000B3E1092193E24C0C1E0C093193ED8DBF3
:1009E000B4DF86E490E10197F1F700C082DEC093A6
:1009F000063E16C080E1E9ECF8E9A1E5BEE301900E
:100A00000D928A95E1F780E1E9EDF8E9ABE3BEE309
:100A100001900D928A95E1F7A9DF82E08093193E5B
:100A2000CF910895E0E4F1E0108611860895E0E4A6
:100A3000F1E081818111FDCF0895F9DFE0E4F1E07B
:100A400081ED808382E0828381E087830895CF9265
:100A5000DF92EF92FF92C0904C3ED0904D3EE090DE
:100A60004E3EF0904F3EFF202CF48FE1C80ED11C7B
:100A7000E11CF11C689414F8F594E794D794C7949A
:100A80001694D1F7FF92EF92DF92CF9289EE98E918
:100A90009F938F9382E89EE39F938F9341D382E845
:100AA0009EE37AD0BFDF8C2D9D2D80934C019093D7
:100AB0004D018DB79EB708968DBF9EBFFF90EF90FA
:100AC000DF90CF9008951F920F920FB60F921124CE
:100AD0002F933F934F935F936F937F938F939F9346
:100AE000AF93BF93EF93FF93E0E4F1E083818260E3
:100AF000838386E099E92FD081E080930E3E809336
:100B0000503EFF91EF91BF91AF919F918F917F9157
:100B10006F915F914F913F912F910F900FBE0F906A
:100B20001F901895E0E0F8E085818068858308953E
:100B30007FDBE0E0F8E08CE695E08087918780EC51
:100B40008683F0DF0895E0E0F8E0948195FFFDCF23
:100B5000809302080895EF92FF920F931F93CF9313
:100B6000DF938C017C01C0E0D0E005C0F7018191EA
:100B70007F01E9DF2196F80101900020E9F7319724
:100B8000E01BF10BCE17DF0788F3DF91CF911F91A8
:100B90000F91FF90EF900895DEDF80E0D4DF08959D
:100BA000E0E0F8E084818823ECF780910008089564
:100BB000CF92DF92EF92FF920F931F93CF93DF9329
:100BC0007C016B016132710524F06894CC24C5F876
:100BD000D12CDD20C4F0E70100E010E07E010F5FC2
:100BE0001F4FDEDF89938A3021F0882311F08D308A
:100BF00031F4F7011082C016D1063CF404C07E0126
:100C0000C016D1065CF7F7011082DF91CF911F91DA
:100C10000F91FF90EF90DF90CF9008950F931F9367
:100C2000CF93DF9300D0CDB7DEB7082F192F9F9356
:100C30008F938BE099E99F938F935FD24AE050E0C6
:100C4000BE016F5F7F4F802F912F02D10F900F90C9
:100C50000F900F900F900F90DF91CF911F910F91F8
:100C600008950F931F93CF93DF936AE179E982E6AA
:100C70009EE30CD2892B19F48FE199E98DDF64E2B0
:100C800079E982E69EE3FED1D82FC92F6CE577E99A
:100C900080E090E0F7D1082F192F9F938F93CF9387
:100CA000DF9386E299E99F938F9382E89EE39F9377
:100CB0008F9336D26AE379E98D2F9C2FE7D12DB738
:100CC0003EB7285F3F4F2DBF3EBF892B41F486E3DF
:100CD00099E962DF602F712F81E59EE3E0D161E445
:100CE00079E98D2F9C2FD2D1892B59F48DE399E985
:100CF00053DF602F712F8BE39EE3D1D181E080938E
:100D00000F3E64E479E98D2F9C2FC0D1892B29F403
:100D100081E080930E3E1092503E67E479E98D2F7A
:100D20009C2FB4D1892B11F51F930F938AE499E975
:100D30009F938F9382E89EE39F938F93F1D182E8F4
:100D40009EE32ADF802F912F69DF60934C3E7093E2
:100D50004D3E80934E3E90934F3E81E080930C3EFB
:100D60000F900F900F900F900F900F9065E579E91D
:100D70008D2F9C2F8BD1892B59F4602F712F8AE1F5
:100D80009EE38DD18AE080932A3E81E080930D3EE0
:100D900068E579E98D2F9C2F79D1892B19F481E0B1
:100DA00080930B3E6FE579E98D2F9C2F6FD1892BB6
:100DB00031F48BE599E9F0DE81E080930A3E66E646
:100DC00079E98D2F9C2F62D1892B31F482E699E944
:100DD000E3DE81E08093093E6DE679E98D2F9C2F5B
:100DE00055D1892B31F489E699E9D6DE81E08093EB
:100DF000083EDF91CF911F910F9108951F920F929E
:100E00000FB60F9211242F933F934F935F936F93DD
:100E10007F938F939F93AF93BF93EF93FF9360E282
:100E200070E082E69EE3C4DE81E08093103EFF9195
:100E3000EF91BF91AF919F918F917F916F915F9152
:100E40004F913F912F910F900FBE0F901F901895CB
:100E5000A0E0B0E0EDE2F7E043C45C016B017A0191
:100E60006115710519F0FB0180839183E114F10490
:100E700029F0C7010297839708F0E2C0E5012196A7
:100E8000F5011081812F90E0F4D0892B11F05E01E3
:100E9000F5CF1D3229F42196F501118101E007C03B
:100EA0001B3221F4E5012296F501118100E0E114E5
:100EB000F10409F1F0E1EF16F10429F43EC010E36A
:100EC000E114F10421F128E0E216F10401F154F4F7
:100ED000E2E0EE16F10421F5812C912CA12CB0E476
:100EE000BB2E3DC0FAE0EF16F10439F020E1E21626
:100EF000F104B1F42FC0103311F1FAE0EF2EF12C10
:100F0000ACEC8A2E982CA82CACE0BA2E28C078E045
:100F1000E72EF12C812C912CA12CE0E1BE2E1FC0DC
:100F200060E070E080E090E897010F2C000C440B2B
:100F3000550BA9D349015A0112C0103359F48881C5
:100F40008F7D883509F0BBCF19812296026080E140
:100F5000E82EF12C812C912CA12C68E0B62E40E0DB
:100F600060E070E0CB0127010F2C000C66087708C9
:100F7000FE0150ED352E310E29E0231570F42FEBD4
:100F8000210F2A3118F439EC332E06C02FE9210F36
:100F90002A3110F529EA322E310E232D30E02E159C
:100FA0003F05D4F447FD15C086169706A806B90676
:100FB00068F0A301920158D3630D711D811D911D2D
:100FC00061307105810520E8920710F04FEF01C0F4
:100FD00041E021961081CCCF202F2170C114D10483
:100FE00071F0442329F02197F601C083D18307C013
:100FF00001FF19C02297F601C083D18314C047FFB7
:1010000012C0222329F060E070E080E090E804C084
:101010006FEF7FEF8FEF9FE722E230E02093B33E48
:101020003093B43E09C0222381F09095809570954D
:1010300061957F4F8F4F9F4F462F372F282F12C01C
:1010400040E030E020E090E00DC097FFF5CF82E275
:1010500090E08093B33E9093B43E6FEF7FEF8FEFBD
:101060009FE7EACF642F732F822FCDB7DEB7E1E180
:1010700050C391110C94810A803219F08950855027
:10108000C8F7089544E05EE311D00895FB01DC0148
:101090008D91019080190110D9F3990B0895FB01EE
:1010A000DC0101900D920020E1F70895FA01A19171
:1010B000B081009719F41097E1F0CD01DC01CD016A
:1010C0000D90002011F4C00113C0FB0121912223D7
:1010D00019F02015D9F7F3CFFB012191201519F450
:1010E0001E92119606C02223C1F70D900020A1F791
:1010F000D001FA01A193B0830895A0E0B0E0E2E846
:10110000F8E0FDC2AE014B5F5F4FFA016191719152
:10111000AF018091B73E9091B83E21D0E2E008C384
:10112000AEE0B0E0E5E9F8E0E8C20D891E8986E0AE
:101130008C8309831A838FEF9FE78D839E83AE0193
:10114000475E5F4F6F89788DCE01019608D0EF81A1
:10115000F885E00FF11F10822E96E4E0E7C2ABE0C5
:10116000B0E0E4EBF8E0BBC26C017B018A01FC015A
:1011700016821782838181FFBFC1CE0101963C0197
:10118000F6019381F70193FD859193FF81917F0192
:10119000882309F4ADC1853239F493FD859193FF1D
:1011A00081917F01853221F4B60190E0C3D1E8CF6F
:1011B000912C212C312CFFE1F315D8F08B3279F0F2
:1011C00038F4803279F08332A1F4232D20611DC0E0
:1011D0008D3261F0803369F4232D216016C0832D98
:1011E0008260382EE32DE4603E2E2AC0F32DF86095
:1011F0001DC037FC2DC020ED280F2A3040F08E3264
:10120000B9F436FC75C1232D2064322E19C036FE88
:1012100006C08AE0989E200D1124922E11C0EAE0AB
:101220002E9E200D1124222EF32DF0623F2E08C099
:101230008C3621F4832D8068382E02C0883641F424
:10124000F70193FD859193FF81917F018111B3CFC8
:10125000982F9F7D9554933028F40C5F1F4F9FE388
:1012600099830DC0833631F0833771F0833509F0EF
:1012700055C020C0F801808189830E5F1F4F8824EC
:101280008394912C530112C02801F2E04F0E511C9F
:10129000F801A080B18036FE03C0692D70E002C065
:1012A0006FEF7FEFC5013BD14C018201F32DFF773A
:1012B0003F2E15C0280122E0420E511CF801A080EB
:1012C000B18036FE03C0692D70E002C06FEF7FEF82
:1012D000C5011AD14C01F32DF0683F2E820133FC79
:1012E00019C0822D90E088169906A0F4B60180E21C
:1012F00090E020D12A94F5CFF50137FC859137FE97
:1013000081915F01B60190E015D121102A9421E06E
:10131000821A91088114910479F7E1C0843611F0A2
:10132000893639F5F80137FE07C060817181828105
:1013300093810C5F1F4F08C060817181072E000CE4
:10134000880B990B0E5F1F4FF32DFF763F2E97FFF3
:1013500009C090958095709561957F4F8F4F9F4FF5
:10136000F0683F2E2AE030E0A30120D1882E8618B5
:1013700044C0853731F4232D2F7EB22E2AE030E091
:1013800025C0932D997FB92E8F36C1F018F488357A
:1013900079F0AEC0803719F0883721F0A9C0E92F65
:1013A000E061BE2EB4FE0DC0FB2DF460BF2E09C05F
:1013B00034FE0AC0292F2660B22E06C028E030E095
:1013C00005C020E130E002C020E132E0F801B7FEC4
:1013D00007C060817181828193810C5F1F4F06C0BD
:1013E0006081718180E090E00E5F1F4FA301DED02D
:1013F000882E8618FB2DFF773F2E36FE0DC0232D3D
:101400002E7FA22E891458F434FE0BC032FC09C082
:10141000832D8E7EA82E05C0B82CA32C03C0B82C1B
:1014200001C0B92CA4FE0FC0FE01E80DF11D8081A2
:10143000803321F49A2D997EA92E09C0A2FE06C000
:10144000B394B39404C08A2D867809F0B394A3FCB6
:1014500010C0A0FE06C0B21480F4280C922C9B1879
:101460000DC0B21458F4B60180E290E063D0B3949A
:10147000F8CFB21418F42B1802C0982C212CA4FE1B
:101480000FC0B60180E390E055D0A2FE16C0A1FCCB
:1014900003C088E790E002C088E590E0B6010CC088
:1014A0008A2D867851F0A1FE02C08BE201C080E255
:1014B000A7FC8DE2B60190E03DD0891430F4B6016E
:1014C00080E390E037D09A94F8CF8A94F301E80D46
:1014D000F11D8081B60190E02DD08110F6CF222041
:1014E00009F44ECEB60180E290E024D02A94F7CFE2
:1014F000F6018681978102C08FEF9FEF2B96E2E184
:1015000007C1992788270895FC0105906150704014
:101510000110D8F7809590958E0F9F1F0895FC01BC
:101520006150704001900110D8F7809590958E0F12
:101530009F1F08950F931F93CF93DF93FB01238188
:1015400021FD03C08FEF9FEF2CC022FF16C0468104
:101550005781248135814217530744F4A081B1811A
:101560009D012F5F3F4F208331838C9326813781EC
:101570002F5F3F4F2683378314C08B01EC01FB01A3
:101580000084F185E02D0995892BE1F6D8011696A6
:101590008D919C911797019616968D939C93179712
:1015A000CE01DF91CF911F910F910895FA01AA27E3
:1015B000283051F1203181F1E8946F936E7F6E5F96
:1015C0007F4F8F4F9F4FAF4FB1E03ED0B4E03CD044
:1015D000670F781F891F9A1FA11D680F791F8A1F27
:1015E000911DA11D6A0F711D811D911DA11D20D08E
:1015F00009F468943F912AE0269F11243019305D48
:101600003193DEF6CF010895462F4770405D419338
:10161000B3E00FD0C9F7F6CF462F4F70405D4A3385
:1016200018F0495D31FD4052419302D0A9F7EACF4D
:10163000B4E0A6959795879577956795BA95C9F77C
:1016400000976105710508959B01AC010A2E06946F
:101650005795479537952795BA95C9F7620F731F28
:10166000841F951FA01D0895DB018F939F932DD09C
:10167000BF91AF91A29F800D911DA39F900DB29F2E
:10168000900D11240895A1E21A2EAA1BBB1BFD0187
:101690000DC0AA1FBB1FEE1FFF1FA217B307E40751
:1016A000F50720F0A21BB30BE40BF50B661F771FA9
:1016B000881F991F1A9469F7609570958095909589
:1016C0009B01AC01BD01CF0108953AD0A59F900DBB
:1016D000B49F900DA49F800D911D112408952F9209
:1016E0003F924F925F926F927F928F929F92AF92B2
:1016F000BF92CF92DF92EF92FF920F931F93CF93FF
:10170000DF93CDB7DEB7CA1BDB0BCDBFDEBF0994BD
:101710002A88398848885F846E847D848C849B8481
:10172000AA84B984C884DF80EE80FD800C811B818F
:10173000AA81B981CE0FD11DCDBFDEBFED010895C5
:10174000A29FB001B39FC001A39F01D0B29F700DB3
:0C175000811D1124911D0895F894FFCF15
:10175C000000666C6167303A2025642C20666C6151
:10176C0067313A2025640A006E6578742042552052
:10177C00696E20313638680A30392E30312E3139C5
:10178C0039302031323A3537005374616E646279E6
:10179C0020556E69740A72656164792100493A5367
:1017AC0054415254454400433A48656C6C6F0D0AE1
:1017BC00004E657720446973706C61790A0052653C
:1017CC0063656976656420536875742D0A646F7758
:1017DC006E2052657175657374210057696C6C20AD
:1017EC0077616B6520757020696E20256C642073A1
:1017FC0065636F6E64730A00676F696E6720746F40
:10180C0020736C656570202E2E2E0A004375723A7B
:10181C0020256400544D503A202564003356333A49
:10182C002025640053686F77206E657874204255CC
:10183C002020203E0A416374696F6E7320202020A3
:10184C00202020203E00446F204261636B75702085
:10185C004E6F7720203E0A57616B6520666F7220B1
:10186C00636F6E6669673E0057616B696E672042F5
:10187C00435520616E640A646F204261636B75701E
:10188C00206E6F77202E2E0057616974696E672069
:10189C00666F72204243550A484220746F2073745D
:1018AC006F700057616974696E6720666F722033C0
:1018BC0056330A746F20676F206C6F770042435564
:1018CC00207374617274696E6720757000506C655A
:1018DC006173652077616974202E2E2E0057726912
:1018EC0074696E6720256C6420746F20434D502002
:1018FC0052656769737465720A00434D500A005053
:10190C00617273696E6720272573273A0A00546544
:10191C007374004563686F003A004D433A20257399
:10192C002C20504C3A2025730A0041434B5F443124
:10193C000041434B5F443200535200425500414337
:10194C004B3A42553A25730A004252005342004129
:10195C00434B3A43430041434B3A54500041434BB1
:04196C003A335600B4
:04197000010153041A
:00000001FF
