:1000000019C028C027C073C125C024C023C022C086
:1000100021C020C01FC01EC01DC01CC01BC01AC0F4
:1000200019C018C017C016C015C014C013C012C024
:1000300011C010C011241FBECFEFCDBFDFE3DEBF64
:100040002EE3A0E0BEE301C01D92A330B207E1F7AA
:1000500074D09CC1D5CF1092023E1092013E0895FB
:10006000E0E0F4E080E88683818380E4818380E1BE
:10007000858381838CE0828382898860828B8389F7
:100080008860838BE0E2F4E083E1818380E2828315
:10009000E0E4F4E08FE0818315820895E0E0F4E08D
:1000A00082898360828B83898360838B089580E15A
:1000B00080932604089580E180932704089581E0C9
:1000C000809327040895E0E0F4E080E8858392E4DB
:1000D0009A95F1F700C0868382E48A95F1F700C013
:1000E0000895E0E4F4E09481907F948394818F708C
:1000F000982B9483089580E480930504089580E408
:10010000809306040895E0E2F4E084E0858381832F
:10011000089584E0809326040895E0E2F4E0858960
:100120008960858B0895F9DF08958091013E8823C9
:1001300019F0C5DF1092013E08958DDF91DFF3DFE6
:10014000ADDFF1D01FD0789480E993E8C1D08DE97C
:1001500093E8FBD0EADF8091003E811101C0D9DF36
:100160008091023E882319F0A2DF1092023E2FEF09
:1001700080E792E0215080409040E1F700C000000D
:100180009ADFE8CF2FE78AE196E021508040904047
:10019000E1F700C00000B3DF83E0A3DF81E093DF7D
:1001A00087E893E10197F1F700C0000083E099DF51
:1001B00081E089DF87E893E10197F1F700C0000053
:1001C00083E08FDF81E07FDF87E893E10197F1F73C
:1001D00000C0000082E085DF81E075DF87E893E101
:1001E0000197F1F700C0000082E07BDF81E06BDF68
:1001F00087E893E10197F1F700C0000088E071DF24
:1002000081E061DF87E893E10197F1F700C000002A
:1002100080E067DF81E057DF87E893E10197F1F73E
:1002200000C000008CE05DDF81E04DDF87E893E1F6
:100230000197F1F700C0000080E053DF81E043DF69
:1002400087E893E10197F1F700C0000086E049DFFD
:1002500081E039DF87E893E10197F1F700C0000002
:1002600080E03FDF81E02FDF87E893E10197F1F73E
:1002700000C0000086E035DF81E025DF87E893E1FC
:100280000197F1F700C0000080E02BDF81E01BDF69
:1002900087E893E10197F1F700C0000081E021DFDA
:1002A00081E011DF87E893E10197F1F700C00000DA
:1002B0000895CF93C82F1FDF8C2F82958F7011DF89
:1002C00081E001DF8C2F0DDF81E0FDDECF9108950D
:1002D000CF93DF93EC010FDF8881882329F02196EB
:1002E000E8DF89918111FCCFDF91CF9108951F92B2
:1002F0000F920FB60F9211248F93EF93FF9380917B
:10030000090482FF08C081E08093023EE9E0F4E046
:10031000808184708083FF91EF918F910F900FBE49
:100320000F901F901895EFDEE0E0F8E08CE695E086
:100330008087918780EC86830895E0E0F8E09481DF
:1003400095FFFDCF809302080895EF92FF920F93DF
:100350001F93CF93DF938C017C01C0E0D0E005C0F8
:10036000F70181917F01E9DF2196F80101900020DA
:10037000E9F73197E01BF10BCE17DF0788F3DF9128
:10038000CF911F910F91FF90EF900895F894FFCFB8
:1003900048616C6C6F2057656C74210A00493A53B0
:0703A0005441525445440092
:00000001FF
