:1000000019C033C032C024C14BC12FC067C42DC03A
:100010002CC02BC0BCC129C028C027C026C025C009
:1000200024C023C022C021C020C01FC0F3C51DC0F2
:100030001CC01BC011241FBECFEFCDBFDFE3DEBF4E
:100040001EE3A0E0BEE3E4ECF6E102C005900D92F1
:10005000A230B107D9F72EE3A2E0BEE301C01D92A2
:10006000A33BB207E1F7A8D283CA36C1E0E0F6E0CD
:10007000808180830895E0E0F6E080818160808364
:100080000895F4DF80E38093A000F5DF0895E0E0B9
:10009000F6E0838580FFFDCF08951F93CF93DF9314
:1000A000C0E0D6E011E01887F2DF1B87DF91CF9127
:1000B0001F910895CF93DF93C0E0D6E085E08E8353
:1000C000ECDF88899989DF91CF910895CF93DF93F1
:1000D000C0E0D6E081E08E83E0DF88899989DF91F6
:1000E000CF910895CF93DF93C0E0D6E08EE18E8369
:1000F000D4DF88899989DF91CF910895DBDF21E0F2
:100100008538934008F420E0822F08951092103E25
:1001100010920F3E0895E0E0F4E08189887F818BA2
:1001200081898460818B8589887F858B85898460BE
:10013000858B0895E0E0F4E080E88683818380E4A5
:10014000818380E1858381838CE0828382898860DA
:10015000828B83898860838BE0E2F4E083E1818392
:1001600080E28283A0E4B4E08FE011968C93119733
:1001700015961C9281E08183CEDF0895809108045A
:1001800086958695869591E08927817090E00895FF
:10019000E0E0F4E082898360828B83898360838BD3
:1001A00008958091113E882319F080E18093250401
:1001B000089580E18093260408958091113E88235C
:1001C00021F080E180932704089580E18093260444
:1001D00008951816190644F48091113E882321F0E1
:1001E00081E080932504089581E08093260408959A
:1001F000E0E0F4E080E8858392E49A95F1F700C0AE
:10020000868382E48A95F1F700C00895E0E4F4E083
:100210009481907F948394818F70982B9483089518
:1002200080E480930504089580E480930604089593
:10023000E0E2F4E084E085838183089584E08093A4
:1002400026040895E0E2F4E085898960858B0895AD
:100250001F920F920FB60F9211248F93EF93FF937B
:100260008091090482FF08C081E08093103EE9E09C
:10027000F4E08081847080838091090483FF08C04A
:1002800081E080930E3EE9E0F4E080818870808315
:10029000FF91EF918F910F900FBE0F901F901895C7
:1002A0001F920F920FB60F9211248F93EF93FF932B
:1002B0008091290485FF08C081E080930F3EE9E228
:1002C000F4E0808180728083FF91EF918F910F9095
:1002D0000FBE0F901F9018951F920F920FB60F929E
:1002E0001124EF92FF921F932F933F934F935F93AD
:1002F0006F937F938F939F93AF93BF93CF93DF932E
:10030000EF93FF93C4E1D0E06894EE24E5F8FF2476
:10031000F2F810E146DF8FE493EC0197F1F700C0AB
:100320000000F70116838FE493EC0197F1F700C00A
:100330000000219779F7FF91EF91DF91CF91BF9165
:10034000AF919F918F917F916F915F914F913F916D
:100350002F911F91FF90EF900F900FBE0F901F9065
:100360001895E0E0FAE08BE29AE086A397A381E09B
:100370008287089567DFF5DF089580910F3E882317
:1003800029F081E090E025DF10920F3E08951F9242
:100390000F920FB60F92112410920D3E0F900FBEC8
:1003A0000F901F90189581E090E013DFF9D186E758
:1003B00095E9E3D12FEF80E792E021508040904013
:1003C000E1F700C0000008958091103E882351F0AD
:1003D0001092103E81E08093163E80910E3E811176
:1003E00005C00EC080910E3E882331F010920E3E63
:1003F00081E08093163E04C080910A3E882329F054
:1004000010920A3E8091163E0ED22FEF80E792E0C6
:10041000215080409040E1F700C000000895ADDF1A
:1004200080910D3E811101C009DF8091103E88232B
:1004300019F0BFDE1092103EA1DE019719F48AE890
:1004400095E995D280910C3E882319F016D310922D
:100450000C3E80910B3E882369F010920B3EA0D198
:1004600089E99EE38AD17FD187E19EE386D184E941
:1004700095E99ED280910A3E882349F091D181EA84
:1004800095E97BD110920A3E8091163ECCD18091A5
:10049000093E882331F084D188E79EE36ED1109223
:1004A000093E8091083E882321F01092083EF1D148
:1004B000E6D18091073E8823B9F01092073E8EEB7B
:1004C00095E976D22FEF80E792E02150804090406E
:1004D000E1F700C00000E0E5F0E080818260808309
:1004E00080818160808388958091063E8823D9F041
:1004F0001092063EEBDD9F938F9382ED95E99F93DB
:100500008F9388E49EE39F938F9316D588E49EE3B0
:100510004FD246D188E49EE330D10F900F900F90D8
:100520000F900F900F908091053E8823D9F0109284
:10053000053ED8DD9F938F938AED95E99F938F9326
:1005400088E49EE39F938F93F7D488E49EE330D2B0
:1005500027D188E49EE311D10F900F900F900F9058
:100560000F900F908091043E8823D9F01092043EA2
:10057000A1DD9F938F9382EE95E99F938F9388E4FB
:100580009EE39F938F93D8D488E49EE311D208D141
:1005900088E49EE3F2D00F900F900F900F900F9091
:1005A0000F902FEF80E792E0215080409040E1F7DC
:1005B00000C0000002DE0895A9DDBCDDDBDEE8DD61
:1005C000C3D12BD05EDD78948AEE95E9D6D08EEF3C
:1005D00095E9CDD181E090E0FCDD82E08093113E91
:1005E0000F2EF3EDCF2EF1E0DF2EF02D0F2EF4EED7
:1005F000EF2EF1E0FF2EF02D0FE012E08091113E82
:10060000813039F020F0823029F4E80103C0E7019D
:1006100001C0E601FE010995F1CF2FE78AE196E0DE
:10062000215080409040E1F700C00000FDDD83E0F4
:10063000EDDD81E0DDDD87E893E10197F1F700C0B2
:10064000000083E0E3DD81E0D3DD87E893E10197FB
:10065000F1F700C0000083E0D9DD81E0C9DD87E863
:1006600093E10197F1F700C0000082E0CFDD81E067
:10067000BFDD87E893E10197F1F700C0000082E059
:10068000C5DD81E0B5DD87E893E10197F1F700C0B2
:10069000000088E0BBDD81E0ABDD87E893E10197F6
:1006A000F1F700C0000080E0B1DD81E0A1DD87E866
:1006B00093E10197F1F700C000008CE0A7DD81E035
:1006C00097DD87E893E10197F1F700C0000080E033
:1006D0009DDD81E08DDD87E893E10197F1F700C0B2
:1006E000000086E093DD81E083DD87E893E10197F8
:1006F000F1F700C0000080E089DD81E079DD87E866
:1007000093E10197F1F700C0000086E07FDD81E012
:100710006FDD87E893E10197F1F700C0000080E00A
:1007200075DD81E065DD87E893E10197F1F700C0B1
:10073000000081E06BDD81E05BDD87E893E10197FC
:10074000F1F700C000000895CF93C82F69DD8C2F0A
:1007500082958F705BDD81E04BDD8C2F57DD81E072
:1007600047DDCF91089560DD8CE050DD81E040DD14
:1007700080E04CDD81E03CDD0895CF93DF93EC0118
:100780004FDD8881882349F021968A3011F4EBDF10
:1007900001C0DADF89918111F8CFDF91CF910895FF
:1007A00043DD80E033DD81E023DD81E02FDD81E08A
:1007B0001FDD87EA91E60197F1F700C00000089578
:1007C000E0E0F4E084818061848381E08093013EF5
:1007D0000895E0E0F4E084818F7E84831092013EEE
:1007E0000895E0E2F4E084818D7F848381E080934A
:1007F000003E0895E0E2F4E08481826084831092F8
:10080000003E0895CDDF88E096E9B7DF80910D3E88
:100810008111FECFC5DF83E296E9AFDF6FDC811186
:10082000FDCF81E00895813089F018F08230A1F089
:100830000895E8DFDFDF80E090E0CBDCBADCC9DFE1
:1008400081E08093073E1092113E089581E08093ED
:10085000113EB6DFE2DE08958DE396E98EDFC1DF5B
:1008600082E08093113E0895E0E4F1E01086118665
:100870000895E0E4F1E081818111FDCF0895F9DF71
:10088000E0E4F1E081ED808382E0828381E0878390
:100890000895CF92DF92EF92FF928091123E909155
:1008A000133EA091143EB091153EBB231CF44F960D
:1008B000A11DB11D6C017D01689414F8F594E794B5
:1008C000D794C7941694D1F7CFDFC0924C01D09241
:1008D0004D01FF90EF90DF90CF9008951F920F92FF
:1008E0000FB60F9211242F933F934F935F936F9303
:1008F0007F938F939F93AF93BF93EF93FF93E0E426
:10090000F1E08381826083838AE596E930D081E0DB
:1009100080930A3E82E08093163EFF91EF91BF9153
:10092000AF919F918F917F916F915F914F913F9187
:100930002F910F900FBE0F901F901895E0E0F8E0F8
:10094000858180688583089573DCE0E0F8E08CE6BB
:1009500095E08087918780EC8683F0DF0895E0E062
:10096000F8E0948195FFFDCF809302080895EF92FF
:10097000FF920F931F93CF93DF938C017C01C0E014
:10098000D0E005C0F70181917F01E9DF2196F801F0
:1009900001900020E9F73197E01BF10BCE17DF073C
:1009A00088F3DF91CF911F910F91FF90EF90089501
:1009B000DEDF80E0D4DF0895E0E0F8E08481882382
:1009C000ECF7809100080895CF92DF92EF92FF92AA
:1009D0000F931F93CF93DF937C016B0161327105FD
:1009E00024F06894CC24C5F8D12CDD20C4F0E701B4
:1009F00000E010E07E010F5F1F4FDEDF89938A3039
:100A000021F0882311F08D3031F4F7011082C016E7
:100A1000D1063CF404C07E01C016D1065CF7F70194
:100A20001082DF91CF911F910F91FF90EF90DF9097
:100A3000CF9008950F931F93CF93DF9300D0CDB73E
:100A4000DEB7082F192F9F938F938FE596E99F9319
:100A50008F935FD24AE050E0BE016F5F7F4F802FDF
:100A6000912F02D10F900F900F900F900F900F9039
:100A7000DF91CF911F910F9108950F931F93CF9303
:100A8000DF936EE676E988E29EE30CD2892B19F4B7
:100A900083E796E98DDF68E776E988E29EE3FED199
:100AA000D82FC92F64E775E980E090E0F7D1082FCF
:100AB000192F9F938F93CF93DF938AE796E99F93A4
:100AC0008F9388E49EE39F938F9336D26EE876E906
:100AD0008D2F9C2FE7D12DB73EB7285F3F4F2DBFFD
:100AE0003EBF892B41F48AE896E962DF602F712FBF
:100AF00089E99EE3E0D165E976E98D2F9C2FD2D17B
:100B0000892B59F481E996E953DF602F712F87E132
:100B10009EE3D1D181E080930B3E68E976E98D2F89
:100B20009C2FC0D1892B29F481E080930A3E10923A
:100B3000163E6BE976E98D2F9C2FB4D1892B11F5E8
:100B40001F930F938EE996E99F938F9388E49EE31A
:100B50009F938F93F1D188E49EE32ADF802F912F1A
:100B600069DF6093123E7093133E8093143E90931E
:100B7000153E81E08093083E0F900F900F900F90EC
:100B80000F900F9069EA76E98D2F9C2F8BD1892BDE
:100B900059F4602F712F88E79EE38DD18AE080930E
:100BA000883E81E08093093E6CEA76E98D2F9C2F88
:100BB00079D1892B19F481E08093073E63EB76E9C4
:100BC0008D2F9C2F6FD1892B31F48FEA96E9F0DEBF
:100BD00081E08093063E6AEB76E98D2F9C2F62D1EF
:100BE000892B31F486EB96E9E3DE81E08093053EC4
:100BF00061EC76E98D2F9C2F55D1892B31F48DEB4B
:100C000096E9D6DE81E08093043EDF91CF911F917B
:100C10000F9108951F920F920FB60F9211242F93E8
:100C20003F934F935F936F937F938F939F93AF9374
:100C3000BF93EF93FF9360E270E088E29EE3C4DE2F
:100C400081E080930C3EFF91EF91BF91AF919F9116
:100C50008F917F916F915F914F913F912F910F9065
:100C60000FBE0F901F901895A0E0B0E0E9E3F6E00A
:100C700043C45C016B017A016115710519F0FB0138
:100C800080839183E114F10429F0C70102978397CF
:100C900008F0E2C0E5012196F5011081812F90E076
:100CA000F4D0892B11F05E01F5CF1D3229F4219685
:100CB000F501118101E007C01B3221F4E501229604
:100CC000F501118100E0E114F10409F1F0E1EF1602
:100CD000F10429F43EC010E3E114F10421F128E00D
:100CE000E216F10401F154F4E2E0EE16F10421F50C
:100CF000812C912CA12CB0E4BB2E3DC0FAE0EF1664
:100D0000F10439F020E1E216F104B1F42FC0103300
:100D100011F1FAE0EF2EF12CACEC8A2E982CA82CD5
:100D2000ACE0BA2E28C078E0E72EF12C812C912C73
:100D3000A12CE0E1BE2E1FC060E070E080E090E8F2
:100D400097010F2C000C440B550BA9D349015A01F4
:100D500012C0103359F488818F7D883509F0BBCFDC
:100D600019812296026080E1E82EF12C812C912CD1
:100D7000A12C68E0B62E40E060E070E0CB012701D6
:100D80000F2C000C66087708FE0150ED352E310E51
:100D900029E0231570F42FEB210F2A3118F439ECD8
:100DA000332E06C02FE9210F2A3110F529EA322E01
:100DB000310E232D30E02E153F05D4F447FD15C02C
:100DC00086169706A806B90668F0A301920158D3C3
:100DD000630D711D811D911D61307105810520E834
:100DE000920710F04FEF01C041E021961081CCCF67
:100DF000202F2170C114D10471F0442329F02197D0
:100E0000F601C083D18307C001FF19C02297F60104
:100E1000C083D18314C047FF12C0222329F060E0B1
:100E200070E080E090E804C06FEF7FEF8FEF9FE706
:100E300022E230E02093AB3E3093AC3E09C0222347
:100E400081F090958095709561957F4F8F4F9F4F62
:100E5000462F372F282F12C040E030E020E090E0EE
:100E60000DC097FFF5CF82E290E08093AB3E909368
:100E7000AC3E6FEF7FEF8FEF9FE7EACF642F732FCA
:100E8000822FCDB7DEB7E1E150C391110C948D09EB
:100E9000803219F089508550C8F7089542E05EE32A
:100EA00011D00895FB01DC018D9101908019011092
:100EB000D9F3990B0895FB01DC0101900D920020FC
:100EC000E1F70895FA01A191B081009719F4109704
:100ED000E1F0CD01DC01CD010D90002011F4C00145
:100EE00013C0FB012191222319F02015D9F7F3CF6C
:100EF000FB012191201519F41E92119606C02223A0
:100F0000C1F70D900020A1F7D001FA01A193B083A1
:100F10000895A0E0B0E0EEE8F7E0FDC2AE014B5F5F
:100F20005F4FFA0161917191AF018091AF3E909155
:100F3000B03E21D0E2E008C3AEE0B0E0E1EAF7E085
:100F4000E8C20D891E8986E08C8309831A838FEF9E
:100F50009FE78D839E83AE01475E5F4F6F89788DDB
:100F6000CE01019608D0EF81F885E00FF11F1082C5
:100F70002E96E4E0E7C2ABE0B0E0E0ECF7E0BBC205
:100F80006C017B018A01FC0116821782838181FF3B
:100F9000BFC1CE0101963C01F6019381F70193FD9B
:100FA000859193FF81917F01882309F4ADC185323A
:100FB00039F493FD859193FF81917F01853221F46E
:100FC000B60190E0C3D1E8CF912C212C312CFFE168
:100FD000F315D8F08B3279F038F4803279F083321F
:100FE000A1F4232D20611DC08D3261F0803369F49E
:100FF000232D216016C0832D8260382EE32DE460FE
:101000003E2E2AC0F32DF8601DC037FC2DC020ED08
:10101000280F2A3040F08E32B9F436FC75C1232DEA
:101020002064322E19C036FE06C08AE0989E200D3C
:101030001124922E11C0EAE02E9E200D1124222EA2
:10104000F32DF0623F2E08C08C3621F4832D80688A
:10105000382E02C0883641F4F70193FD859193FF45
:1010600081917F018111B3CF982F9F7D955493304B
:1010700028F40C5F1F4F9FE399830DC0833631F036
:10108000833771F0833509F055C020C0F8018081A5
:1010900089830E5F1F4F88248394912C530112C0C3
:1010A0002801F2E04F0E511CF801A080B18036FEFD
:1010B00003C0692D70E002C06FEF7FEFC5013BD127
:1010C0004C018201F32DFF773F2E15C0280122E04D
:1010D000420E511CF801A080B18036FE03C0692D7C
:1010E00070E002C06FEF7FEFC5011AD14C01F32D04
:1010F000F0683F2E820133FC19C0822D90E08816E3
:101100009906A0F4B60180E290E020D12A94F5CFB0
:10111000F50137FC859137FE81915F01B60190E0C2
:1011200015D121102A9421E0821A9108811491048A
:1011300079F7E1C0843611F0893639F5F80137FEC8
:1011400007C060817181828193810C5F1F4F08C04D
:1011500060817181072E000C880B990B0E5F1F4F69
:10116000F32DFF763F2E97FF09C0909580957095DF
:1011700061957F4F8F4F9F4FF0683F2E2AE030E000
:10118000A30120D1882E861844C0853731F4232D41
:101190002F7EB22E2AE030E025C0932D997FB92E04
:1011A0008F36C1F018F4883579F0AEC0803719F069
:1011B000883721F0A9C0E92FE061BE2EB4FE0DC032
:1011C000FB2DF460BF2E09C034FE0AC0292F266013
:1011D000B22E06C028E030E005C020E130E002C0B9
:1011E00020E132E0F801B7FE07C0608171818281A1
:1011F00093810C5F1F4F06C06081718180E090E099
:101200000E5F1F4FA301DED0882E8618FB2DFF77BF
:101210003F2E36FE0DC0232D2E7FA22E891458F4AA
:1012200034FE0BC032FC09C0832D8E7EA82E05C073
:10123000B82CA32C03C0B82C01C0B92CA4FE0FC03D
:10124000FE01E80DF11D8081803321F49A2D997EF5
:10125000A92E09C0A2FE06C0B394B39404C08A2D7F
:10126000867809F0B394A3FC10C0A0FE06C0B214A7
:1012700080F4280C922C9B180DC0B21458F4B601BF
:1012800080E290E063D0B394F8CFB21418F42B1836
:1012900002C0982C212CA4FE0FC0B60180E390E080
:1012A00055D0A2FE16C0A1FC03C088E790E002C0A2
:1012B00088E590E0B6010CC08A2D867851F0A1FE39
:1012C00002C08BE201C080E2A7FC8DE2B60190E093
:1012D0003DD0891430F4B60180E390E037D09A9481
:1012E000F8CF8A94F301E80DF11D8081B60190E0FA
:1012F0002DD08110F6CF222009F44ECEB60180E227
:1013000090E024D02A94F7CFF6018681978102C01D
:101310008FEF9FEF2B96E2E107C199278827089569
:10132000FC010590615070400110D8F780959095B0
:101330008E0F9F1F0895FC016150704001900110B5
:10134000D8F7809590958E0F9F1F08950F931F9348
:10135000CF93DF93FB01238121FD03C08FEF9FEF2C
:101360002CC022FF16C04681578124813581421747
:10137000530744F4A081B1819D012F5F3F4F20832B
:1013800031838C93268137812F5F3F4F26833783AC
:1013900014C08B01EC01FB010084F185E02D09955F
:1013A000892BE1F6D80116968D919C91179701969D
:1013B00016968D939C931797CE01DF91CF911F9135
:1013C0000F910895FA01AA27283051F1203181F1B7
:1013D000E8946F936E7F6E5F7F4F8F4F9F4FAF4F3D
:1013E000B1E03ED0B4E03CD0670F781F891F9A1F50
:1013F000A11D680F791F8A1F911DA11D6A0F711D04
:10140000811D911DA11D20D009F468943F912AE00F
:10141000269F11243019305D3193DEF6CF010895F7
:10142000462F4770405D4193B3E00FD0C9F7F6CF28
:10143000462F4F70405D4A3318F0495D31FD4052F0
:10144000419302D0A9F7EACFB4E0A6959795879586
:1014500077956795BA95C9F7009761057105089565
:101460009B01AC010A2E0694579547953795279511
:10147000BA95C9F7620F731F841F951FA01D0895A9
:10148000DB018F939F932DD0BF91AF91A29F800DD1
:10149000911DA39F900DB29F900D11240895A1E27C
:1014A0001A2EAA1BBB1BFD010DC0AA1FBB1FEE1FDE
:1014B000FF1FA217B307E407F50720F0A21BB30B29
:1014C000E40BF50B661F771F881F991F1A9469F7A5
:1014D00060957095809590959B01AC01BD01CF0101
:1014E00008953AD0A59F900DB49F900DA49F800DB4
:1014F000911D112408952F923F924F925F926F9207
:101500007F928F929F92AF92BF92CF92DF92EF9293
:10151000FF920F931F93CF93DF93CDB7DEB7CA1B14
:10152000DB0BCDBFDEBF09942A88398848885F84E9
:101530006E847D848C849B84AA84B984C884DF8073
:10154000EE80FD800C811B81AA81B981CE0FD11D57
:10155000CDBFDEBFED010895A29FB001B39FC001D2
:10156000A39F01D0B29F700D811D1124911D08957C
:04157000F894FFCF1D
:10157400000053746174652069730A646973706C44
:1015840061795F6F6E00433A48656C6C6F0D0A00B9
:101594004E657720446973706C61790A0052656303
:1015A400656976656420536875742D0A646F776E77
:1015B40020526571756573742100676F696E6720C9
:1015C400746F20736C656570202E2E2E0A0043758F
:1015D400723A20256400544D503A20256400335655
:1015E400333A202564005374616E64627920556E29
:1015F40069740A72656164792100493A535441520D
:101604005445440057616974696E6720666F72209F
:101614004243550A484220746F2073746F70005718
:10162400616974696E6720666F72203356330A7479
:101634006F20676F206C6F770048656C6C6F204675
:101644006F6C6B73210A5374617274696E67204204
:101654004355202E2E00434D500A00506172736989
:101664006E6720272573273A0A0054657374004572
:1016740063686F003A004D433A2025732C20504C88
:101684003A2025730A0041434B5F44310041434BE8
:101694005F44320053520042550041434B3A425595
:1016A4003A25730A0042520053420041434B3A43E5
:1016B400430041434B3A54500041434B3A335600A4
:0216C400010122
:00000001FF
